:020000040800F2
:100000000050002095030008DB030008DD03000812
:10001000DF030008E1030008E3030008000000001C
:10002000000000000000000000000000E5030008E0
:10003000E703000800000000E9030008EB030008E4
:10004000EF030008F1030008F3030008F5030008BC
:10005000F7030008F9030008FB030008FD0300088C
:10006000FF03000801040008030400080504000859
:1000700007040008090400080B0400080D04000828
:100080000F040008110400081304000815040008F8
:1000900017040008190400081B0400081D040008C8
:1000A0001F04000821040008230400082504000898
:1000B00027040008290400082B0400082D04000868
:1000C0002F04000831040008330400083504000838
:1000D00037040008390400083B0400083D04000808
:1000E0003F040008410400084304000810B5054C13
:1000F000237833B9044B13B10448AFF300800123D4
:10010000237010BD6800002000000000FC050008FE
:1001100008B5064B1BB106480649AFF300800648F8
:10012000036813B1054B03B1984708BD00000000F8
:10013000FC0500086C0000206800002000000000A2
:10014000154B002B08BF134B9D46A3F5803A0021A9
:100150008B460F461348144A121A00F035FA0F4B1B
:10016000002B00D098470E4B002B00D09847002062
:10017000002104000D000D48002802D00C48AFF308
:10018000008000F0FBF92000290000F0BBF800F02F
:10019000E1F900BF0000080000500020000000004E
:1001A0000000000068000020860000200000000021
:1001B00000000000CB782DE9F00303F00F06DB060A
:1001C00048BF8B780A8848BF1E4312F0FF0F26D025
:1001D0000768002301254FF00F0803E00133082BC7
:1001E0001BD00A8805FA03F42240A242F6D19C00F3
:1001F00008FA04F906FA04F491F803C027EA09079B
:10020000BCF1280F47EA040734D0BCF1480F03F1D2
:10021000010308BF0261082BE3D107600A88FF2AA7
:1002200025D94768002301254FF00F0C03E0013367
:10023000082B1BD00A8803F1080405FA04F42240B5
:10024000A242F4D19C000CFA04F906FA04F8CC7826
:100250000133282C04BF4261CC7827EA0907482CD7
:1002600008BF0261082B47EA0807E3D14760BDE8F1
:10027000F00370474261B1E7044B9A6919B922EA69
:100280000000986170471043986170470010024069
:1002900010B5042082B00121FFF7EEFF02241022E6
:1002A0000323064801A9ADF804408DF807208DF816
:1002B0000630FFF77FFF02B010BD00BF000801400D
:1002C00010B5082082B00121FFF7D6FF4FF470541B
:1002D00048220323054801A9ADF804408DF8072002
:1002E0008DF80630FFF766FF02B010BD000C01402C
:1002F000034B1A88D2F1010238BF00221A807047DE
:10030000840000202DE9F0410024DFF884801E4F96
:100310001E4EFFF7BDFF2546FFF7D2FF2146012203
:10032000BB68DB4303F480538B4214D00AB91446F4
:100330001546CBB10134032C05F1010519D001227A
:10034000B8F800306BB10023F360BB68DB4303F403
:1003500080538B42EAD1002AEBD1B8F80030002B51
:10036000F1D10223F360DBE70134032C05F1FF3503
:10037000E5D1002D04DDFFF7BBFF00220121DFE7FF
:1003800000210A46DCE700BF000C014000080140E4
:10039000840000200649074A074B9A42BEBF51F825
:1003A000040B42F8040BF8E7044880470448004770
:1003B0000806000800000020680000204D04000826
:1003C000410100081F49204A002301E041F8043B95
:1003D0009142FBD3FFF796FFFEE7FEE7FEE7FEE75D
:1003E000FEE7FEE7FEE7FEE7FEE7FEE7FEE7FEE7E5
:1003F000FEE7FEE7FEE7FEE7FEE7FEE7FEE7FEE7D5
:10040000FEE7FEE7FEE7FEE7FEE7FEE7FEE7FEE7C4
:10041000FEE7FEE7FEE7FEE7FEE7FEE7FEE7FEE7B4
:10042000FEE7FEE7FEE7FEE7FEE7FEE7FEE7FEE7A4
:10043000FEE7FEE7FEE7FEE7FEE7FEE7FEE7FEE794
:10044000FEE7FEE7680000208600002010B43D4B68
:100450003D4A196883B041F00101196059680020D4
:100460000A405A6019684FF41F0421F0847121F486
:100470008031196019681A4621F480211960596881
:1004800021F4FE0159609C6000900190196841F4CC
:100490008031196003E0009BB3F5A06F09D01368A9
:1004A00003F400330193009B01330093019B002B65
:1004B000F1D0244B1B6813F4003318BF01230193C0
:1004C000019B012B07D0214B4FF000629A6003B0D3
:1004D0005DF8044B70471E4A1A4B1068194640F0ED
:1004E00010001060106820F003001060106840F0E9
:1004F000020010605A685A605A685A605A6842F49A
:1005000080625A605A6822F47C125A605A6842F437
:10051000E8125A601A6842F080721A600B68094A41
:100520009B01FBD55368114623F0030353605368C6
:1005300043F0020353604B6803F00C03082BFAD11D
:10054000C1E700BF001002400000FFF800ED00E02E
:100550000020024008B5074B044613B10021AFF359
:100560000080054B1868836A03B19847204600F065
:1005700033F800BF00000000F805000870B50E4B0E
:100580000E4D0024ED1AAD101E46AC4204D056F8B4
:10059000242090470134F8E700F020F8084D094B7B
:1005A0000024ED1AAD101E46AC4204D056F82420AB
:1005B00090470134F8E770BD600000206000002023
:1005C000640000206000002002440346934202D0F1
:1005D00003F8011BFAE77047FEE70000F8B500BF1B
:1005E000F8BC08BC9E467047F8B500BFF8BC08BC14
:1005F0009E467047430000000000002000000000FD
:0806000040FBFF7F0100000038
:1006080000000000000000000000000000000000E2
:1006180000000000000000000000000000000000D2
:10062800F4050008000000000000000000000000C1
:1006380000000000000000000000000000000000B2
:1006480000000000000000000000000000000000A2
:100658000000000000000000000000000000000092
:0806680011010008ED0000087B
:0400000508000000EF
:00000001FF
