:020000040800F2
:10000000005000208D160008D3160008D5160008F1
:10001000D7160008D9160008DB16000800000000FB
:10002000000000000000000000000000DD160008D5
:10003000DF16000800000000E1160008E3160008C3
:10004000E7160008E9160008EB160008ED16000890
:10005000EF160008F1160008F3160008F516000860
:10006000F7160008F9160008FB160008FD16000830
:10007000FF160008011700080317000805170008FD
:1000800007170008091700080B1700080D170008CC
:100090000F1700081117000813170008151700089C
:1000A00017170008191700081B1700081D1700086C
:1000B0001F1700082117000823170008251700083C
:1000C00027170008291700082B1700082D1700080C
:1000D0002F170008311700083317000835170008DC
:1000E00037170008391700083B17000810B5054CF2
:1000F000237833B9044B13B10448AFF300800123D4
:10010000237010BD78000020000000007419000862
:1001100008B5064B1BB106480649AFF300800648F8
:10012000036813B1054B03B1984708BD00000000F8
:10013000741900087C0000207800002000000000F6
:10014000154B002B08BF134B9D46A3F5803A0021A9
:100150008B460F461348144A121A01F0B1FB0F4B9D
:10016000002B00D098470E4B002B00D09847002062
:10017000002104000D000D48002802D00C48AFF308
:10018000008001F077FB2000290000F07BFE01F0E9
:100190005DFB00BF000008000050002000000000D0
:1001A0000000000078000020D806002000000000B9
:1001B00000000000CB782DE9F00303F00F06DB060A
:1001C00048BF8B780A8848BF1E4312F0FF0F26D025
:1001D0000768002301254FF00F0803E00133082BC7
:1001E0001BD00A8805FA03F42240A242F6D19C00F3
:1001F00008FA04F906FA04F491F803C027EA09079B
:10020000BCF1280F47EA040734D0BCF1480F03F1D2
:10021000010308BF0261082BE3D107600A88FF2AA7
:1002200025D94768002301254FF00F0C03E0013367
:10023000082B1BD00A8803F1080405FA04F42240B5
:10024000A242F4D19C000CFA04F906FA04F8CC7826
:100250000133282C04BF4261CC7827EA0907482CD7
:1002600008BF0261082B47EA0807E3D14760BDE8F1
:10027000F00370474261B1E7016170474161704727
:1002800030B40028184B00F44012B4BFDB695B683F
:10029000B2F5401F84B21FD0C20214D5C0F303428E
:1002A000032505FA02F223EA020343F0706319B151
:1002B000420D1201944023430B4A0028B4BFD3617E
:1002C000536030BC7047420D120104FA02F223EA77
:1002D000020343F07063EAE7034A23F07063556852
:1002E00025F070655560E2E700000140044B9A6913
:1002F00019B922EA0000986170471043986170476D
:1003000000100240044BDA6919B922EA0000D861F2
:1003100070471043D861704700100240F0B40B885A
:100320004C888A881C43CB8814430A891C434B8918
:100330008F8922430588CE891A433A43324305F414
:10034000415313439BB20380838BF0BC23F40063BF
:100350001B041B0C83830B8A03827047038829B913
:1003600023F040031B041B0C038070479BB243F037
:1003700040030380704700BF4FF6FF639942038834
:1003800004D09BB243F480730380704723F48073DE
:100390001B041B0C03807047038919420CBF00200B
:1003A0000120704713880380D2F802304360D3885D
:1003B000038113894381D2F80A30C360D2F80E302A
:1003C0000B60D2F812304B60D2F816308B60538B32
:1003D0008B81938BCB81D2F81E300B61D2F8223007
:1003E0004B61D2F826308B61D2F82A30CB61D2F83B
:1003F0002E300B62D2F832304B627047028844F6DE
:1004000042539A4201D0012070474B68F02BFAD139
:100410008B68B3F5A07FF6D1CB89182BF3D108698F
:10042000003018BF0120704782B000230193019B68
:1004300000EB8000984205DD019B01330193019B95
:100440009842F9DC02B0704782B000210091009B15
:10045000984211DD41F287320191019B934205DC04
:10046000019B01330193019B9342F9DD009B013312
:100470000093009B8342EFDB02B0704708B500F0A9
:100480003FFF002008BD00BF08B528B100F0E2FE24
:10049000003018BF012008BD022008BD83680D4A46
:1004A0000021012B0180126812D091688B420FD27B
:1004B00003B91369C3609168023B02398B423BBFA9
:1004C00091785269002301FB0323036100207047E8
:1004D000012070479400002000B5174B012883B01D
:1004E0001B6805D99A68904202D21A78032A03D071
:1004F000012003B05DF804FBD96800F07F0201EB36
:10050000D011920001A80423FFF7BEFF0028EFD10D
:100510009DF806009DF807309DF80420000440EA8D
:1005200003609DF80530104340EA032020F070403E
:1005300003B05DF804FB00BF940000202DE9F041FA
:1005400005881B4E0135ADB20446376815B9032046
:10055000BDE8F0810369002BF9D02A071CD1C068DF
:1005600001332361E0B1BB78013B13EA151813D1C5
:10057000FFF7B2FF012817D9BB689842E7D233686A
:10058000E0609A680238023A90423BBF9A785B6911
:10059000404602FB0030206125800020BDE8F0814C
:1005A000BB88AB42D3D9F7E70120BDE8F08100BF9B
:1005B000940000202DE9F04713789046202B074641
:1005C0000E4603D118F8013F202BFBD02F2B4FF004
:1005D000000408BF08F10108BC6098F800301F2B28
:1005E0007CD97868DFF80CA100F10B0103462022CA
:1005F00003F8012B8B42FBD100210A46082418F88E
:1006000002300132202BD2B219D92F2B5AD02E2BE7
:100610006AD0A14256D21D0644BF803B1AF803306F
:10062000A3F16105192D9CBF203BDBB2435418F8A0
:1006300002304D1C0132202BE9B2D2B2E5D80123A1
:10064000C37238469044FFF729FF8146002836D10F
:100650003A88304602F00F02520139692023FFF731
:1006600013FF002835D1347874B396F80BC01CF012
:10067000080F1ED17868324600F10B01034601E0F5
:1006800012F8014F13F8015BA54212D18B42F7D14A
:10069000C37AA3B91CF0100F16D0747D327DF37E9F
:1006A000B17E42EA042241EA032343EA0243BB60EB
:1006B0009AE73846FFF742FF0028C9D081464846EE
:1006C000BDE8F0870023BBE74FF003094846BDE8CB
:1006D000F0874FF001094846BDE8F0873846FFF73C
:1006E000DDFE34708146EAE7082CEBD121460B246D
:1006F00085E700BFEC18000838B54FF4FF720223FD
:1007000004460D46FFF7C0FE08B1032038BD6178EE
:1007100022780D4B42EA012212B29A4201D0022005
:1007200038BD2946204652220223FFF7ADFE48B9C4
:100730006078227844F2461342EA0020C01A18BFBB
:10074000012038BD012038BD55AAFFFF2DE9F04337
:10075000554C00238BB006462360FFF78FFE10F048
:10076000010503D002200BB0BDE8F08301A82946A3
:10077000FFF7C2FF012808D0032804D028B30620C1
:100780000BB0BDE8F0830120EDE7294601A84FF446
:10079000DF721023FFF778FE0028F4D19DF80830AF
:1007A000002BECD09DF80E209DF80F109DF80C301A
:1007B000120442EA01629DF80D50134343EA0525F5
:1007C000294601A8FFF798FFD6E701A829460D2280
:1007D0002423FFF759FE0028D5D19DF80E209DF85F
:1007E0000D3053EA022C0DD19DF81D209DF81E10EE
:1007F00012049DF81B3042EA01629DF81CC01343AD
:1008000043EA0C2C9DF805309DF806109DF80990E0
:100810009DF808209DF80B709DF80A0043EA01211D
:100820009DF807809DF804300D4442EA092250EA01
:100830000720F560B28008FB0CFCB3700ED19DF868
:1008400019709DF81A803F049DF8170047EA086860
:100850009DF8187048EA000040EA0720411ACCEBE6
:1008600001011209891AB1FBF3F302334FF6F67155
:100870008B42B36083D99DF825109DF826000904AA
:100880009DF8233041EA00619DF824000B432A447F
:1008900002EB0C0143EA0022032300207161266071
:1008A0003261337070705EE79400002030B5204BE9
:1008B00091B01C687CB10023637002466B4403A8AE
:1008C00008A90493FFF776FE18B99DF820302BB9DC
:1008D000032011B030BD052011B030BD9DF82B3084
:1008E00003F0100303F0FF00002BF1D19DF83A1044
:1008F0009DF83B309DF835509DF8342041EA0323A4
:1009000042EA052243EA024323629DF83E309DF805
:100910003F209DF83C101B0443EA02639DF83D20F4
:100920000B4343EA02220123E261A0616370D0E736
:10093000940000202DE9F047DFF8D8900023D9F883
:100940000040924680460E461380002C56D06378B5
:10095000DB0702D40420BDE8F087A369E2690746FB
:10096000D21A8A4238BF96B2FEB94FE0A16AAAB243
:10097000C2F50075ADB2B54228BF3546B8F1000FDB
:1009800014BF384600202B46FFF77EFD002838D1E3
:10099000A369761B2B44A361BAF80030B6B22B448E
:1009A0002F44AAF800308EB3A369C3F30805002DC5
:1009B000DCD1A178013901EA532111F0FF0512D0F1
:1009C000626AD9F80030023A98680238824218D236
:1009D00099785B6901FB02329AB1A3695119A1624E
:1009E000C3F30805C3E72BB9206A012809D960625F
:1009F0000246E6E7606AFFF76FFDF6E70520BDE80F
:100A0000F087002363700120BDE8F0870020BDE877
:100A1000F08700BF94000020F8B52B4F3C687CB3F2
:100A20006378DB0701D40420F8BDE5690023A84200
:100A300038BF0546A269A36125B3A67876023AB10C
:100A4000013A691EB2FBF6F3B1FBF6F199421BD2F3
:100A5000206A6062AE4209D332E0A36898420BD2AA
:100A6000A369AE4233446062A36113D2FFF734FD41
:100A70000128C6EB0505F0D8002363700120F8BDFE
:100A80000520F8BD2846F8BD73421A40A261AD1A90
:100A9000606ADFE73A682B44A36191680238023943
:100AA0008842E9D29178526901FB0022002AE3D002
:100AB000A1780020013901EA53231A44A262F8BD4B
:100AC000A3692246E7E700BF9400002010B5064C5A
:100AD0004FF400612046FFF7D1FB20464FF4006140
:100AE000BDE81040FFF7C8BB0008014038B5094C0D
:100AF00005464FF480612046FFF7C0FBE36823F012
:100B0000FF03E360E3681D43E560BDE83840FFF79D
:100B1000DDBF00BF000801402DE9F04104468846D2
:100B200015484FF480511746FFF7A6FB12484FF4C3
:100B30000071FFF7A3FB2046FFF7D8FFA7B10E4DCA
:100B400000240D484FF4806118F80460FFF794FB0F
:100B5000EB68013423F0FF03EB60EB681E43EE60AB
:100B6000FFF7B4FFBC42ECDB03484FF40071BDE873
:100B7000F041FFF781BB00BF0008014070B582B0B3
:100B80000024194D01A9EF232A2004228DF80730F3
:100B90008DF804408DF805408DF806400126FFF7DA
:100BA000BBFF4023042201A92B208DF807308DF8CC
:100BB00004408DF805408DF80660FFF7ADFF28462C
:100BC0004FF48051FFF758FB28464FF40071FFF7B0
:100BD00055FB2C20FFF78AFF28464FF48061FFF772
:100BE0004BFB02B070BD00BF0008014002484FF44B
:100BF0000071FFF741BB00BF0008014030B40E4B4D
:100C000000F53475D9684FF4006201F47741047837
:100C100003300C43DC601A6110F8024C0C43DC60BA
:100C20001A6110F8014CA84244EA0104DC601A6120
:100C3000EDD130BC704700BF0008014030B5214CF9
:100C400083B004200121FFF751FB41F6FF7510220C
:100C50000323204601A98DF807208DF80630ADF852
:100C60000450FFF7A7FA20464FF48071FFF706FB08
:100C700020464FF48071FFF7FFFA0A20FFF7E4FBEC
:100C8000002106230A4611208DF80430FFF744FFA7
:100C900001A93A200122FFF73FFF00210A46132055
:100CA000FFF73AFF402301A9362001228DF80430D6
:100CB000FFF732FF00210A462920FFF72DFF03B07E
:100CC00030BD00BF0008014010B5102082B00121E6
:100CD000FFF70CFB4FF4005410220323054801A931
:100CE000ADF804408DF807208DF80630FFF762FA62
:100CF00002B010BD0010014010B50E4C10B1238899
:100D00008B4211D90C484FF40051FFF7B5FA2388F4
:100D10000A4A01339BB2A2FB0312D20802EB820201
:100D2000A3EB4203238010BD03484FF40051FFF7AB
:100D3000A5FAECE79800002000100140CDCCCCCC07
:100D400008B520210F2000F01DFA0020014600F018
:100D5000F5F9044800F014F9BDE80840024800F035
:100D600023B900BF000000200800002008B50A21B8
:100D70000120FFF7C1FF0548FFF756FB00200A21BD
:100D8000FFF7BAFF0148FFF74FFBF0E780841E0032
:100D900000B5ADF5017DFFF789FD18B10DF5017DB9
:100DA0005DF804FB4FF40071084A6846FFF7C2FD86
:100DB000074808496A46FFF7F5FA05480549FFF76D
:100DC0001DFB0028EAD0FFF7D1FF00BFDC000020A8
:100DD000A0000020E0000020F0B52748ADF5377DE9
:100DE000FFF7B4FC312562216D2270232E24684662
:100DF0008DF800508DF801408DF802108DF8032019
:100E00008DF80430FFF7C4FF1C4F1D4D3226F868E3
:100E1000FFF702FEFFF7B2FE4FF4A07402A84FF4F2
:100E20003471174AFFF786FD2B88B3F5347F20D144
:100E3000013C02A8A4B2FFF7E1FE002CEED1FFF7BF
:100E4000D5FE8DF80060013662216D2270232E24BC
:100E50006846F6B28DF801408DF802108DF8032037
:100E60008DF80430FFF794FF362ED0D10DF5377D85
:100E7000F0BDFFF77BFF00BFB0000020A000002006
:100E8000DC00002008B5FFF71FFF01200A21FFF753
:100E900033FFFFF7D3FEFFF753FFFFF79DFF08BDBA
:100EA00038B5084C054640212046FFF7E7F92846AB
:100EB000E22100F0EBFA20464021BDE83840FFF780
:100EC000DBB900BF000C014030B50C4C83B00322ED
:100ED0001023204601A9C0258DF806208DF8073083
:100EE000ADF80450FFF766F920464021FFF7C4F93A
:100EF00020468021FFF7C2F903B030BD000C01404D
:100F0000F8B50C4D07460E4628460B4C4021FFF71E
:100F1000B5F907F01F0141F02001204600F0B6FAB4
:100F20003146204600F0B2FA28464021BDE8F8409C
:100F3000FFF7A2B9000C0140003001402DE9F0415B
:100F40000D4D07460E4628460C4C40219046FFF7B3
:100F500095F907F01F0141F02001204600F096FAB4
:100F600020463146424600F0AFFA28464021BDE80F
:100F7000F041FFF781B900BF000C01400030014093
:100F800038B5084C054680212046FFF777F92946F9
:100F90000B200522FFF7D2FF20468021BDE8384014
:100FA000FFF76AB9000C014010B50146044605225E
:100FB0000A20FFF7C3FF214610200522BDE810409C
:100FC000FFF7BCBF10B50B4C80212046FFF756F948
:100FD0000948FFF765FF07207021FFF791FF002008
:100FE0000B21FFF78DFF20468021BDE81040FFF761
:100FF00043B900BF000C01400030014010B5002093
:1010000082B00821FFF77CFF01203F21FFF778FF26
:1010100002200321FFF774FF03200146FFF770FF52
:1010200004200321FFF76CFF05200221FFF768FF72
:1010300006200E21FFF764FF07200E21FFF760FF57
:1010400008200021FFF75CFF09200021FFF758FF6F
:10105000E72469460A2005228DF800408DF80140FA
:101060008DF802408DF803408DF80440FFF766FFCD
:10107000C223052269460B208DF800308DF801301F
:101080008DF802308DF803308DF80430FFF756FFED
:101090000C20C321FFF734FF0D20C421FFF730FFE0
:1010A0000E20C521FFF72CFF0F20C621FFF728FFD8
:1010B0000522694610208DF800408DF801408DF81A
:1010C00002408DF803408DF80440FFF737FF1120F0
:1010D0000021FFF715FF12200021FFF711FF132059
:1010E0000021FFF70DFF14200021FFF709FF152055
:1010F0000021FFF705FF16200021FFF701FF172051
:101100001121FFF7FDFE1C200021FFF7F9FE1D2035
:101110000021FFF7F5FE02B010BD00BF7D28034699
:1011200008D8054A5178814204D001460520537001
:10113000FFF7E6BE704700BF9C000020104A0B4638
:10114000D070917070B102280CBF20210021032BB8
:101150000CD0022B0FD0012B08BF41F0020106205A
:10116000FFF7CEBE032B4FF00801F2D141F006018C
:101170000620FFF7C5BE41F004010620FFF7C0BE00
:101180009C000020F8B506460F46002500F0BEF989
:10119000202F28BF2027FFF797FE731B5A422A4CA7
:1011A0005A4103236270A3702770E570FFF726FF92
:1011B0003046FFF7B3FF21781120FFF7A1FE217819
:1011C0001220FFF79DFE21781320FFF799FE21786A
:1011D0001420FFF795FE21781520FFF791FE217866
:1011E0001620FFF78DFEE078A178FFF7A7FF2846CD
:1011F0000821FFF785FE01203F21FFF781FE022035
:101200003F21FFF77DFE114E04204F21FFF778FEAE
:101210000F4C29461C20FFF773FE30464021FFF794
:101220002DF82046E12100F031F930464021FFF74A
:1012300023F82046FFF734FE07207021FFF760FEF9
:10124000FFF7C0FE0120F8BD9C000020000C01400B
:1012500000300140F8B50C4607464FF4805126484F
:1012600015461E46FFF70AF85121244800F00EF9F2
:10127000210E224800F00AF9C4F307411F4800F08C
:1012800005F9C4F307211D4800F000F9E1B21B483D
:1012900000F0FCF81948002100F0F8F81748FF2189
:1012A00000F0F4F80028F9D11448FF2100F0EEF81E
:1012B000FE28F9D17F1B0024FF21104800F0E6F83A
:1012C000A2B29542C5EB040102D88E42C8BF385580
:1012D0000134B4F5007FEFD1FF21084800F0D6F8C3
:1012E000FF21064800F0D2F803484FF48051FEF782
:1012F000C3FF0020F8BD00BF000C014000380040D3
:1013000010B5302000F064F95E484FF48051FEF7CC
:10131000B3FF0A245C48FF2100F0B8F8013CF9D182
:1013200058484FF48051FEF7A9FF4021564800F07D
:10133000ADF82146544800F0A9F82146524800F083
:10134000A5F82146504800F0A1F821464E4800F08B
:101350009DF84D48952100F099F84B48FF2100F089
:1013600095F801280446F8D146484FF48051FEF71D
:1013700083FF44484FF48051FEF780FF48214248E4
:1013800000F084F80021404800F080F800213E4839
:1013900000F07CF821463C4800F078F8AA213A4851
:1013A00000F074F83848872100F070F83648FF21C3
:1013B00000F06CF8FF28F9D0FF21334800F066F800
:1013C000FF21314800F062F8FF212F4800F05EF85D
:1013D000FF212D4800F05AF82A484FF48051FEF7BB
:1013E0004BFF28484FF48051FEF748FF77212648ED
:1013F00000F04CF80021244800F048F80021224871
:1014000000F044F80021204800F040F800211E4878
:1014100000F03CF81C48002100F038F81A48FF2181
:1014200000F034F80128F9D16921174800F02EF8AE
:101430004021154800F02AF80021134800F026F852
:101440000021114800F022F800210F4800F01EF89A
:10145000FF210D4800F01AF8FF210B4800F016F8A4
:101460000948FF2100F012F804460028BED10548C3
:101470004FF48051FEF700FF2046BDE8104000F019
:10148000A7B800BF000C01400038004038B5044642
:1014900000880D4600F0400080B2A0B12046022135
:1014A000FEF77AFF0028F9D0A58120468021FEF7BB
:1014B00073FF0128F9D020460121FEF76DFF0028B7
:1014C000F9D0A089C0B238BD70B5038804465B0668
:1014D0000E4619D5C2B1154620460221FEF75CFF23
:1014E0000028F9D016F8013B237320468021FEF72F
:1014F00053FF0128F9D020460121FEF74DFF0028B7
:10150000F9D0013DA389E7D170BD00BF70B54FF49C
:10151000805086B00121FEF7E9FE08200121FEF788
:10152000E5FE01200146FEF7E1FE27480121FEF716
:10153000A7FE264C01200146FEF7A2FE18252046F4
:1015400001A928220323ADF804208DF806308DF878
:101550000750FEF72FFE10220423204601A9ADF804
:1015600004208DF80730FEF725FE01200146FEF726
:10157000BDFE012004F510540146FEF781FE4FF434
:10158000007600234FF4827201A92046ADF80430A2
:10159000ADF80830ADF80A30ADF80C30ADF81230C7
:1015A000ADF80620ADF81050ADF80E60FEF7B6FEAF
:1015B00020460121FEF7D2FE20464FF48071FEF74F
:1015C000DBFE06B070BD00BF00023000000C014021
:1015D000F0B52C4C87B0064600212046FEF7BEFE33
:1015E000294D4FF480400121FEF78CFE0820012197
:1015F000FEF77CFE4FF42047284601A9032218235A
:101600008DF806208DF80730ADF80470FEF7D2FD96
:10161000284601A94FF480521023ADF804208DF81C
:101620000730FEF7C7FD284601A94FF48042042386
:10163000ADF804208DF807304FF40075FEF7BAFDC1
:1016400000234FF4827201A92046ADF80430ADF8B2
:101650000830ADF80A30ADF80C30ADF81230ADF806
:101660000620ADF81060ADF80E50FEF757FE20468C
:101670000121FEF773FE20464FF48071FEF77CFED9
:1016800007B0F0BD00380040000C01400649074A91
:10169000074B9A42BEBF51F8040B42F8040BF8E71F
:1016A00004488047044800478019000800000020D3
:1016B0007800002045170008410100081F49204A12
:1016C000002301E041F8043B9142FBD3FFF7DAFB32
:1016D000FEE7FEE7FEE7FEE7FEE7FEE7FEE7FEE7E2
:1016E000FEE7FEE7FEE7FEE7FEE7FEE7FEE7FEE7D2
:1016F000FEE7FEE7FEE7FEE7FEE7FEE7FEE7FEE7C2
:10170000FEE7FEE7FEE7FEE7FEE7FEE7FEE7FEE7B1
:10171000FEE7FEE7FEE7FEE7FEE7FEE7FEE7FEE7A1
:10172000FEE7FEE7FEE7FEE7FEE7FEE7FEE7FEE791
:10173000FEE7FEE7FEE7FEE7FEE7FEE778000020B3
:10174000D806002010B43D4B3D4A196883B041F0E3
:1017500001011960596800200A405A6019684FF465
:101760001F0421F0847121F48031196019681A4630
:1017700021F480211960596821F4FE0159609C60B0
:1017800000900190196841F48031196003E0009BDA
:10179000B3F5A06F09D0136803F400330193009BE5
:1017A00001330093019B002BF1D0244B1B6813F4F1
:1017B000003318BF01230193019B012B07D0214B5C
:1017C0004FF000629A6003B05DF8044B70471E4A08
:1017D0001A4B1068194640F010001060106820F095
:1017E00003001060106840F0020010605A685A60F0
:1017F0005A685A605A6842F480625A605A6822F401
:101800007C125A605A6842F4E8125A601A6842F030
:1018100080721A600B68094A9B01FBD55368114618
:1018200023F003035360536843F0020353604B6893
:1018300003F00C03082BFAD1C1E700BF00100240EF
:101840000000FFF800ED00E00020024008B5074B63
:10185000044613B10021AFF30080054B1868836A7A
:1018600003B19847204600F033F800BF00000000A5
:101870007019000870B50E4B0E4D0024ED1AAD1016
:101880001E46AC4204D056F8242090470134F8E7B5
:1018900000F020F8084D094B0024ED1AAD101E464B
:1018A000AC4204D056F8242090470134F8E770BDCC
:1018B00070000020700000207400002070000020E4
:1018C00002440346934202D003F8011BFAE7704733
:1018D000FEE70000F8B500BFF8BC08BC9E467047A4
:1018E000F8B500BFF8BC08BC9E467047809A90418E
:1018F0008E418F804545454949498E8F9092924F40
:10190000994F555559999A9B9C9D9E9F41494F557A
:10191000A5A5A6A7A8A9AAABAC21AEAFB0B1B2B39A
:10192000B4B5B6B7B8B9BABBBCBDBEBFC0C1C2C3FF
:10193000C4C5C6C7C8C9CACBCCCDCECFD0D1D2D3EF
:10194000D4D5D6D7D8D9DADBDCDDDEDFE0E1E2E3DF
:10195000E4E5E6E7E8E9EAEBECEDEEEFF0F1F2F3CF
:10196000F4F5F6F7F8F9FAFBFCFDFEFF4300000082
:0819700010000020000000003F
:08197800C8E7FF7F0100000039
:101980007E7E7E7E7E000000E7E7E7E7E70000005E
:101990000000000000000000000000000000000047
:1019A0000000000000000000000000000000000037
:1019B0006C1900080000000000000000000000009A
:1019C0000000000000000000000000000000000017
:1019D0000000000000000000000000000000000007
:1019E00000000000000000000000000000000000F7
:0819F00011010008ED000008E0
:0400000508000000EF
:00000001FF
