:020000040800F2
:1000000000500020190600085F060008610600087D
:100010006306000865060008670600080000000087
:100020000000000000000000000000006906000859
:100030006B060008000000006D0600086F0600084F
:1000400073060008750600087706000879060008A0
:100050007B0600087D0600087F0600088106000870
:100060008306000885060008870600088906000840
:100070008B0600088D0600088F0600089106000810
:1000800093060008950600089706000899060008E0
:100090009B0600089D0600089F060008A1060008B0
:1000A000A3060008A5060008A7060008A906000880
:1000B000AB060008AD060008AF060008B106000850
:1000C000B3060008B5060008B7060008B906000820
:1000D000BB060008BD060008BF060008C1060008F0
:1000E000C3060008C5060008C706000810B5054C81
:1000F000237833B9044B13B10448AFF300800123D4
:10010000237010BD7800002000000000000D0008E2
:1001100008B5064B1BB106480649AFF300800648F8
:10012000036813B1054B03B1984708BD00000000F8
:10013000000D00087C000020780000200000000076
:10014000154B002B08BF134B9D46A3F5803A0021A9
:100150008B460F461348144A121A00F0B7FD0F4B96
:10016000002B00D098470E4B002B00D09847002062
:10017000002104000D000D48002802D00C48AFF308
:10018000008000F07DFD2000290000F03BF900F028
:1001900063FD00BF000008000050002000000000C8
:1001A0000000000078000020DC00002000000000BB
:1001B00000000000CB782DE9F00303F00F06DB060A
:1001C00048BF8B780A8848BF1E4312F0FF0F26D025
:1001D0000768002301254FF00F0803E00133082BC7
:1001E0001BD00A8805FA03F42240A242F6D19C00F3
:1001F00008FA04F906FA04F491F803C027EA09079B
:10020000BCF1280F47EA040734D0BCF1480F03F1D2
:10021000010308BF0261082BE3D107600A88FF2AA7
:1002200025D94768002301254FF00F0C03E0013367
:10023000082B1BD00A8803F1080405FA04F42240B5
:10024000A242F4D19C000CFA04F906FA04F8CC7826
:100250000133282C04BF4261CC7827EA0907482CD7
:1002600008BF0261082B47EA0807E3D14760BDE8F1
:10027000F00370474261B1E7016170474161704727
:1002800030B40028184B00F44012B4BFDB695B683F
:10029000B2F5401F84B21FD0C20214D5C0F303428E
:1002A000032505FA02F223EA020343F0706319B151
:1002B000420D1201944023430B4A0028B4BFD3617E
:1002C000536030BC7047420D120104FA02F223EA77
:1002D000020343F07063EAE7034A23F07063556852
:1002E00025F070655560E2E700000140044B9A6913
:1002F00019B922EA0000986170471043986170476D
:1003000000100240F0B40B884C888A881C43CB88CC
:1003100014430A891C434B898F8922430588CE895F
:100320001A433A43324305F4415313439BB20380CB
:10033000838BF0BC23F400631B041B0C83830B8AA8
:1003400003827047038829B923F040031B041B0C68
:10035000038070479BB243F040030380704700BFA7
:100360004FF6FF639942038804D09BB243F4807335
:100370000380704723F480731B041B0C03807047B9
:10038000038919420CBF00200120704710B51020CE
:1003900082B00121FFF7AAFF4FF40054102203237B
:1003A000054801A9ADF804408DF807208DF8063006
:1003B000FFF700FF02B010BD0010014010B50E4C59
:1003C00010B123888B4211D90C484FF40051FFF72C
:1003D00053FF23880A4A01339BB2A2FB0312D208BF
:1003E00002EB8202A3EB4203238010BD03484FF4CB
:1003F0000051FFF743FFECE794000020001001409C
:10040000CDCCCCCC08B5FFF7C1FF01200A21FFF706
:10041000D5FF20210F2000F0B7FB0020014600F09F
:100420008FFB0B4800F064FA0A4800F075FA0020D0
:100430000A21FFF7C3FF00F0D3FA0028F7D001200C
:100440000A21FFF7BBFF044800F090FAEFE700BF76
:1004500000000020080000209C00002008B54FF498
:1004600080500121FFF742FF08200121FFF73EFFE6
:10047000BDE8084001200146FFF738BF10B5012153
:1004800082B004461848FFF7FBFE01200146FFF743
:10049000F7FE28220323B4F5827F01ACADF80420D7
:1004A0008DF80630214611D0042310488DF807300E
:1004B000FFF780FE10221823ADF804208DF80730D6
:1004C00021460A48FFF776FE02B010BD1823074800
:1004D0008DF80730FFF76EFE10220423ADF80420DC
:1004E0008DF80730ECE700BF00023000000C01403F
:1004F00070B5164C86B0FFF7B1FF4FF48270FFF76E
:10050000BDFF4FF4007600234FF48272204601A90C
:100510000825ADF80430ADF80830ADF80A30ADF874
:100520000C30ADF81230ADF80620ADF80E60ADF825
:100530001050FFF7E7FE20460121FFF703FF20469A
:100540004FF48071FFF70CFF06B070BD0030014022
:1005500038B5044600880D4600F0400080B2A0B1D6
:1005600020460221FFF70CFF0028F9D0A581204684
:100570008021FFF705FF0128F9D020460121FFF770
:10058000FFFE0028F9D0A089C0B238BD70B503883D
:1005900004465B060E4619D5C2B115462046022117
:1005A000FFF7EEFE0028F9D016F8013B2373204632
:1005B0008021FFF7E5FE0128F9D020460121FFF751
:1005C000DFFE0028F9D0013DA389E7D170BD00BF4F
:1005D000F8B504460088174642060E461BD5D3B12F
:1005E0001D4620460221FFF7CBFE0028F9D016F861
:1005F000013B237320468021FFF7C2FE0128F9D07A
:1006000020460121FFF7BCFE0028F9D0237B013DE5
:1006100007F8013BE5D1F8BD0649074A074B9A4266
:10062000BEBF51F8040B42F8040BF8E704488047BA
:10063000044800470C0D000800000020780000204E
:10064000D1060008410100081F49204A002301E0AB
:1006500041F8043B9142FBD3FFF7D4FEFEE7FEE7EF
:10066000FEE7FEE7FEE7FEE7FEE7FEE7FEE7FEE762
:10067000FEE7FEE7FEE7FEE7FEE7FEE7FEE7FEE752
:10068000FEE7FEE7FEE7FEE7FEE7FEE7FEE7FEE742
:10069000FEE7FEE7FEE7FEE7FEE7FEE7FEE7FEE732
:1006A000FEE7FEE7FEE7FEE7FEE7FEE7FEE7FEE722
:1006B000FEE7FEE7FEE7FEE7FEE7FEE7FEE7FEE712
:1006C000FEE7FEE7FEE7FEE778000020DC00002002
:1006D00010B43D4B3D4A196883B041F001011960E7
:1006E000596800200A405A6019684FF41F0421F02D
:1006F000847121F48031196019681A4621F480212F
:100700001960596821F4FE0159609C6000900190C5
:10071000196841F48031196003E0009BB3F5A06FC4
:1007200009D0136803F400330193009B0133009355
:10073000019B002BF1D0244B1B6813F4003318BF2E
:1007400001230193019B012B07D0214B4FF0006245
:100750009A6003B05DF8044B70471E4A1A4B10684C
:10076000194640F010001060106820F0030010607F
:10077000106840F0020010605A685A605A685A6067
:100780005A6842F480625A605A6822F47C125A60B5
:100790005A6842F4E8125A601A6842F080721A608D
:1007A0000B68094A9B01FBD55368114623F00303EC
:1007B0005360536843F0020353604B6803F00C032B
:1007C000082BFAD1C1E700BF001002400000FFF87B
:1007D00000ED00E00020024038B5084C05464021FD
:1007E0002046FFF74BFD2846E221FFF7B1FE2046E9
:1007F0004021BDE83840FFF73FBD00BF000C01407D
:1008000030B50C4C83B003221023204601A9C0252B
:100810008DF806208DF80730ADF80450FFF7CAFCBC
:1008200020464021FFF728FD20468021FFF726FDC6
:1008300003B030BD000C014070B50B4D0B4C0646AB
:1008400040212846FFF71AFD06F01F012046FFF75A
:100850007FFE2046FF21FFF77BFE4021044628460D
:10086000FFF70AFD204670BD000C0140003001403A
:10087000F8B50C4D07460E4628460B4C4021FFF7B5
:10088000FDFC07F01F0141F020012046FFF760FE4C
:1008900031462046FFF75CFE28464021BDE8F8407F
:1008A000FFF7EABC000C0140003001402DE9F041A7
:1008B0000D4D07460E4628460C4C40219046FFF74A
:1008C000DDFC07F01F0141F020012046FFF740FE4C
:1008D000204631464246FFF759FE28464021BDE8F2
:1008E000F041FFF7C9BC00BF000C014000300140DF
:1008F00038B5084C054680212046FFF7BFFC294645
:100900000B200522FFF7D2FF20468021BDE83840AA
:10091000FFF7B2BC000C014010B5014604460522A9
:100920000A20FFF7C3FF214610200522BDE8104032
:10093000FFF7BCBF10B50B4C80212046FFF79EFC93
:100940000948FFF749FF07207021FFF791FF0020BA
:100950000B21FFF78DFF20468021BDE81040FFF7F7
:100960008BBC00BF000C01400030014070B50E4D43
:100970000E4C064640212846FFF780FC20466121A8
:10098000FFF7E6FD0A4B3146204632461B78FFF75B
:100990001FFE28464021FFF76FFCBDE8704007208E
:1009A0004021FFF765BF00BF000C0140003001404F
:1009B0009800002038B5084C40212046FFF75EFC27
:1009C000FF210648FFF7C4FD402105462046FFF7FA
:1009D00053FC284638BD00BF000C014000300140E8
:1009E00008B5FFF7E7FF430601D5012008BD172032
:1009F000FFF722FF00F0010080F0010008BD00BFFA
:100A000010B5002082B00821FFF732FF01203F21FE
:100A1000FFF72EFF02200321FFF72AFF03200146E4
:100A2000FFF726FF04200321FFF722FF0520022104
:100A3000FFF71EFF06200E21FFF71AFF07200E21E9
:100A4000FFF716FF08200021FFF712FF0920002101
:100A5000FFF70EFFE72469460A2005228DF80040C3
:100A60008DF801408DF802408DF803408DF8044068
:100A7000FFF71CFFC223052269460B208DF80030CA
:100A80008DF801308DF802308DF803308DF8043088
:100A9000FFF70CFF0C20C321FFF7EAFE0D20C42155
:100AA000FFF7E6FE0E20C521FFF7E2FE0F20C6216C
:100AB000FFF7DEFE0522694610208DF800408DF814
:100AC00001408DF802408DF803408DF80440FFF797
:100AD000EDFE11200021FFF7CBFE12200021FFF7D1
:100AE000C7FE13200021FFF7C3FE14200021FFF7EB
:100AF000BFFE15200021FFF7BBFE16200021FFF7E7
:100B0000B7FE17201121FFF7B3FE1C200021FFF7CD
:100B1000AFFE1D200021FFF7ABFE02B010BD00BFED
:100B20007D28034608D8054A5178814204D0014601
:100B300005205370FFF79CBE704700BF980000204F
:100B4000104A0B46D070917070B102280CBF202162
:100B50000021032B0CD0022B0FD0012B08BF41F03A
:100B600002010620FFF784BE032B4FF00801F2D1EB
:100B700041F006010620FFF77BBE41F0040106208C
:100B8000FFF776BE98000020F8B506460F46002510
:100B9000FFF7AEFC202F28BF2027FFF731FE731B85
:100BA0005A422A4C5A4103236270A3702770E570A1
:100BB000FFF726FF3046FFF7B3FF21781120FFF73C
:100BC00057FE21781220FFF753FE21781320FFF7FC
:100BD0004FFE21781420FFF74BFE21781520FFF7F8
:100BE00047FE21781620FFF743FEE078A178FFF753
:100BF000A7FF28460821FFF73BFE01203F21FFF712
:100C000037FE02203F21FFF733FE114E04204F2113
:100C1000FFF72EFE0F4C29461C20FFF729FE304619
:100C20004021FFF72BFB2046E121FFF791FC3046E6
:100C30004021FFF721FB2046FFF7CEFD0720702162
:100C4000FFF716FEFFF776FE0120F8BD98000020A2
:100C5000000C01400030014008B5074B044613B1B9
:100C60000021AFF30080054B1868836A03B19847F1
:100C7000204600F033F800BF00000000FC0C000824
:100C800070B50E4B0E4D0024ED1AAD101E46AC4251
:100C900004D056F8242090470134F8E700F020F8FB
:100CA000084D094B0024ED1AAD101E46AC4204D08D
:100CB00056F8242090470134F8E770BD70000020FA
:100CC00070000020740000207000002002440346E1
:100CD000934202D003F8011BFAE77047FEE70000D9
:100CE000F8B500BFF8BC08BC9E467047F8B500BF19
:100CF000F8BC08BC9E46704743000000100000206E
:040D000000000000EF
:080D04003CF4FF7F0100000038
:100D0C007E7E7E7E7E000000E7E7E7E7E7000000DE
:100D1C0000000000000000000000000000000000C7
:100D2C0000000000000000000000000000000000B7
:100D3C00F80C00080000000000000000000000009B
:100D4C000000000000000000000000000000000097
:100D5C000000000000000000000000000000000087
:100D6C000000000000000000000000000000000077
:080D7C0011010008ED00000860
:0400000508000000EF
:00000001FF
