:020000040800F2
:1000000000500020B50A0008751B0008791B000885
:100010007D1B0008811B0008851B000800000000F4
:10002000000000000000000000000000891B000824
:100030008D1B000800000000911B0008951B0008A4
:100040000F0B0008110B0008130B0008150B00081C
:10005000170B0008190B00081B0B00081D0B0008EC
:100060001F0B0008210B0008230B0008250B0008BC
:10007000270B0008290B00082B0B00082D0B00088C
:100080002F0B0008310B0008330B0008350B00085C
:10009000991B0008390B00083B0B00083D0B0008BA
:1000A0003F0B0008410B0008430B0008450B0008FC
:1000B000470B0008490B00084B0B00084D0B0008CC
:1000C0004F0B0008510B0008530B0008550B00089C
:1000D000570B0008590B00085B0B00085D0B00086C
:1000E0005F0B0008610B00089D1B000810B5054C54
:1000F000237833B9044B13B10448AFF300800123D4
:10010000237010BD6C0100200000000010230008C7
:1001100008B5064B1BB106480649AFF300800648F8
:10012000036813B1054B03B1984708BD00000000F8
:1001300010230008700100206C0100200000000066
:10014000154B002B08BF134B9D46A3F5803A0021A9
:100150008B460F461348144A121A02F063F80F4BED
:10016000002B00D098470E4B002B00D09847002062
:10017000002104000D000D48002802D00C48AFF308
:10018000008002F029F82000290000F09BF902F01D
:100190000FF800BF00000800005000200000000021
:1001A000000000006C010020B402002000000000EC
:1001B0000000000040F0BF60024B40F40030D86007
:1001C000704700BF00ED00E0C37830B45BB903783E
:1001D000012103F01F0291405B09154A203342F8C8
:1001E000231030BC7047134B4478DB680F22DB438D
:1001F000C3F30223C3F1040122FA03F38C40857890
:10020000017803EA0502224301F160431201D2B2F0
:1002100003F5614383F800230378012103F01F02F3
:100220009140034A5B0942F8231030BC704700BF7D
:1002300000E100E000ED00E0837910B4002B2BD04A
:10024000214B0268196821EA02021A6059680268A3
:1002500021EA02025A600279016802F1804202F545
:1002600082321468214311609968026821EA02020F
:100270009A60D968026821EA0202DA604279102A9B
:1002800017D002F1804303F58233026819680A43EC
:100290001A605DF8044B70470379016803F18043ED
:1002A00003F582331A6822EA01021A605DF8044BF2
:1002B0007047996802680A439A600268D9680A43DD
:1002C000DA605DF8044B704700040140014B58614F
:1002D000704700BF00040140CB782DE9F00303F024
:1002E0000F06DB0648BF8B780A8848BF1E4312F012
:1002F000FF0F26D00768002301254FF00F0803E009
:100300000133082B1BD00A8805FA03F42240A242CD
:10031000F6D19C0008FA04F906FA04F491F803C037
:1003200027EA0907BCF1280F47EA040734D0BCF1DB
:10033000480F03F1010308BF0261082BE3D10760F6
:100340000A88FF2A25D94768002301254FF00F0CA2
:1003500003E00133082B1BD00A8803F1080405FAD7
:1003600004F42240A242F4D19C000CFA04F906FAEB
:1003700004F8CC780133282C04BF4261CC7827EAFA
:100380000907482C08BF0261082B47EA0807E3D198
:100390004760BDE8F00370474261B1E70161704713
:1003A00041617047014B1860704700BFD80042425E
:1003B000044B9A6919B922EA00009861704710430A
:1003C0009861704700100240044BDA6919B922EABB
:1003D0000000D86170471043D86170470010024098
:1003E000F0B40B884C888A881C43CB8814430A8954
:1003F0001C434B898F8922430588CE891A433A438F
:10040000324305F4415313439BB20380838BF0BC0A
:1004100023F400631B041B0C83830B8A0382704745
:10042000038829B923F040031B041B0C0380704789
:100430009BB243F040030380704700BF4FF6FF6359
:100440009942038804D09BB243F4807303807047C1
:1004500023F480731B041B0C03807047038919422B
:100460000CBF00200120704710B5102082B0012180
:10047000FFF79EFF4FF4005410220323054801A903
:10048000ADF804408DF807208DF80630FFF724FF03
:1004900002B010BD0010014008B520210F2000F06F
:1004A00015FA0020014600F0EDF9044800F0A8F824
:1004B000BDE80840024800F0B7B800BF04000020C3
:1004C0000C00002010B5134CFFF7CEFFFFF7E4FF40
:1004D00001F0C2FA01F000FB01F0E0FA01F05AF875
:1004E0000D484FF40051FFF759FF237883B10A48B4
:1004F0004FF40051FFF754FF084B013BFDD1064874
:100500004FF40051FFF74AFF044B013BFDD123702C
:10051000FEE700BFA801002000100140002D3101BE
:1005200038B5084C054610212046FFF739FF28460C
:10053000E22100F033FA20461021BDE83840FFF7F1
:100540002DBF00BF0008014030B50C4C83B018220D
:1005500003232046102501A9ADF804208DF80630AC
:100560008DF80750FFF7B8FE20462946FFF716FF23
:1005700020460821FFF714FF03B030BD00080140FA
:10058000F8B50C4D07460E4628460B4C1021FFF7D8
:1005900007FF07F01F0141F02001204600F0FEF99F
:1005A0003146204600F0FAF928461021BDE8F8400F
:1005B000FFF7F4BE00080140003001402DE9F04192
:1005C0000D4D07460E4628460C4C10219046FFF76D
:1005D000E7FE07F01F0141F02001204600F0DEF9A0
:1005E00020463146424600F0F7F928461021BDE882
:1005F000F041FFF7D3BE00BF0008014000300140CA
:1006000038B5084C054608212046FFF7C9FE2946A3
:100610000B200522FFF7D2FF20460821BDE8384015
:10062000FFF7BCBE0008014010B501460446052294
:100630000A20FFF7C3FF214610200522BDE8104025
:10064000FFF7BCBF08B507207021FFF799FFBDE891
:10065000084000200A21FFF793BF00BF10B50B4CE4
:1006600008212046FFF79CFE0948FFF759FF0720A5
:100670007021FFF785FF00200B21FFF781FF204647
:100680000821BDE81040FFF789BE00BF0008014007
:1006900000300140F8B5174C174B184D074608219C
:1006A00020461E78FFF77CFEFFF7CCFF2046102186
:1006B000FFF776FE2846E12100F070F92046102170
:1006C000FFF76CFE20461021FFF76AFE2846A021A6
:1006D00000F064F928463946324600F07DF920469C
:1006E0001021FFF75BFE20460821BDE8F840FFF728
:1006F00055BE00BF000801408801002000300140C5
:1007000038B5084C10212046FFF74AFEFF21064865
:1007100000F044F9102105462046FFF73FFE284629
:1007200038BD00BF000801400030014008B5FFF7A8
:10073000E7FF83065DBF80F0100040F30010C0B2F9
:10074000012008BD10B5002082B00821FFF718FF76
:1007500001203F21FFF714FF02200321FFF710FFC4
:1007600003200146FFF70CFF04200321FFF708FFD9
:1007700005200221FFF704FF06200E21FFF700FFEE
:1007800007200E21FFF7FCFE08200021FFF7F8FEEE
:1007900009200021FFF7F4FEE72469460A2005221C
:1007A0008DF800408DF801408DF802408DF803402F
:1007B0008DF80440FFF702FFC223052269460B2093
:1007C0008DF800308DF801308DF802308DF803304F
:1007D0008DF80430FFF7F2FE0C20C321FFF7D0FEA6
:1007E0000D20C421FFF7CCFE0E20C521FFF7C8FE67
:1007F0000F20C621FFF7C4FE0522694610208DF8A0
:1008000000408DF801408DF802408DF803408DF8CE
:100810000440FFF7D3FE11200021FFF7B1FE1220A4
:100820000021FFF7ADFE13200021FFF7A9FE1420E1
:100830000021FFF7A5FE15200021FFF7A1FE1620DD
:100840000021FFF79DFE17201121FFF799FE1C20C4
:100850000021FFF795FE1D200021FFF791FE02B059
:1008600010BD00BF7D28034608D8054A5178814253
:1008700004D0014605205370FFF782BE704700BFC9
:1008800088010020104A0B46D070917070B1022888
:100890000CBF20210021032B0CD0022B0FD0012BE9
:1008A00008BF41F002010620FFF76ABE032B4FF09C
:1008B0000801F2D141F006010620FFF761BE41F0C8
:1008C00004010620FFF75CBE88010020F8B506464B
:1008D0000F46002500F0A2F8202F28BF2027FFF7A1
:1008E00033FE731B5A422A4C5A4103236270A37091
:1008F0002770E570FFF726FF3046FFF7B3FF21783A
:100900001120FFF73DFE21781220FFF739FE2178F4
:100910001320FFF735FE21781420FFF731FE2178F0
:100920001520FFF72DFE21781620FFF729FEE0782D
:10093000A178FFF7A7FF28460821FFF721FE012035
:100940003F21FFF71DFE02203F21FFF719FE114E48
:1009500004204F21FFF714FE0F4C29461C20FFF7FF
:100960000FFE30461021FFF71BFD2046E12100F06D
:1009700015F830461021FFF711FD2046FFF7D0FD96
:1009800007207021FFF7FCFDFFF768FE0120F8BD8E
:1009900088010020000801400030014038B50446BD
:1009A00000880D4600F0400080B2A0B12046022130
:1009B000FFF754FD0028F9D0A58120468021FFF7DC
:1009C0004DFD0128F9D020460121FFF747FD002801
:1009D000F9D0A089C0B238BD70B5038804465B0663
:1009E0000E4619D5C2B1154620460221FFF736FD45
:1009F0000028F9D016F8013B237320468021FFF729
:100A00002DFD0128F9D020460121FFF727FD002800
:100A1000F9D0013DA389E7D170BD00BF70B54FF497
:100A2000805086B0214D0121FFF7C2FC0420012136
:100A3000FFF7BEFC1E4C1826284601A9A02203235E
:100A4000ADF804208DF806308DF80760FFF744FC00
:100A5000284601A940220423ADF804208DF8073070
:100A60004FF40075FFF738FC00234FF4827201A9A0
:100A70002046ADF80430ADF80830ADF80A30ADF8D6
:100A80000C30ADF81230ADF80620ADF81060ADF8BE
:100A90000E50FFF7A5FC20460121FFF7C1FC2046C0
:100AA0004FF48071FFF7CAFC06B070BD000801402A
:100AB000003001400649074A074B9A42BEBF51F831
:100AC000040B42F8040BF8E7044880470448004749
:100AD0001C230008000000206C0100206D0B0008A2
:100AE000410100081F49204A002301E041F8043B6E
:100AF0009142FBD3FFF7E6FCFEE7FEE7FEE7FEE7E9
:100B0000FEE7FEE7FEE7FEE7FEE7FEE7FEE7FEE7BD
:100B1000FEE7FEE7FEE7FEE7FEE7FEE7FEE7FEE7AD
:100B2000FEE7FEE7FEE7FEE7FEE7FEE7FEE7FEE79D
:100B3000FEE7FEE7FEE7FEE7FEE7FEE7FEE7FEE78D
:100B4000FEE7FEE7FEE7FEE7FEE7FEE7FEE7FEE77D
:100B5000FEE7FEE7FEE7FEE7FEE7FEE7FEE7FEE76D
:100B6000FEE7FEE76C010020B402002010B43D4B0C
:100B70003D4A196883B041F00101196059680020AD
:100B80000A405A6019684FF41F0421F0847121F45F
:100B90008031196019681A4621F48021196059685A
:100BA00021F4FE0159609C6000900190196841F4A5
:100BB0008031196003E0009BB3F5A06F09D0136882
:100BC00003F400330193009B01330093019B002B3E
:100BD000F1D0244B1B6813F4003318BF0123019399
:100BE000019B012B07D0214B4FF000629A6003B0AC
:100BF0005DF8044B70471E4A1A4B1068194640F0C6
:100C000010001060106820F003001060106840F0C1
:100C1000020010605A685A605A685A605A6842F472
:100C200080625A605A6822F47C125A605A6842F410
:100C3000E8125A601A6842F080721A600B68094A1A
:100C40009B01FBD55368114623F00303536053689F
:100C500043F0020353604B6803F00C03082BFAD1F6
:100C6000C1E700BF001002400000FFF800ED00E007
:100C70000020024008B538B1064B1B681B68984736
:100C8000054B18680A3008BD034B01221B681A8205
:100C900008BD00BFF8010020FC01002008B538B1F4
:100CA000064B1B689B689847054B18680C3008BDBD
:100CB000034B01221B681A8208BD00BFF801002007
:100CC000FC01002008B5224B002832D021481A68C8
:100CD00000210180137813F07F0316D0012B27D059
:100CE000022B24D1537903F00F021B0625D4930065
:100CF00003F1804303F5B8431B6803F44053B3F595
:100D0000805F0ED1012303700BE0537A9A0654BF23
:100D10000278022259064CBF42F0010222F0010281
:100D200002700D4B1B681B6998470A4808BD0846AE
:100D300008BD1B6802221A8208BD920002F180429F
:100D400002F5B842136803F03003102BE9D1D9E75C
:100D5000FC010020CC010020F80100202DE9F04129
:100D6000264F3C68238A267A23B9042E2DD0A58AE3
:100D7000042603E0A58AAB42FAD902269D4228BF89
:100D80001D462846A36998478046002000F0C4FD10
:100D90002A460146404600F0DFFC2946002000F0CC
:100DA000D7FD618AB4F810C01548164BC5EB0C0C82
:100DB0003A680D4430274FF440510780A4F810C022
:100DC000658219801672BDE8F0810F490A78012A00
:100DD00007D00B4B10212246072619801672BDE85A
:100DE000F0810A480A4A04680548A4B22244520025
:100DF000136030243A680B700480E3E7FC010020A4
:100E000004020020020200208C010020505C0040FF
:100E10000230002010B50B4B0B4A1B685178DA7872
:100E2000914201D2022010BD99780029FAD19C8804
:100E3000002CF7D105499A720B685B6898472046E9
:100E400010BD00BFFC010020FC000020F8010020C4
:100E500038B5104A104C126823685879D9789369CC
:100E6000984723689A7A0AB9022038BD0028FBD136
:100E70001A79002AF8D19D78002DF5D1074B1B680F
:100E8000DB689847236828465979DA78D9721A734B
:100E900038BD00BFD4010020FC010020F801002073
:100EA00038B5324B1B68187810F07F0003D0022849
:100EB00006D0022038BD5A7A22F020025A7238BD7C
:100EC0005A88002AF6D11A79002AF3D15A7922F0E9
:100ED0008000840004F18041150601F5B84156BF39
:100EE00009680D6801F44055214948BF05F03005F7
:100EF00009788842DDD2002DDBD09B7A002BD8D038
:100F000004F1804404F5B8441206236809D503F0BF
:100F10003003102B1ED0174B1B685B6998470020CD
:100F200038BD03F44053B3F5805FF4D1D8B9124B08
:100F300093F82C1000F01AFD236823F4804323F06B
:100F400070039BB283F4405343F4004343F08003A7
:100F50002360E0E7C4B2204600F0ACFC204630211C
:100F600000F03EFCD7E700F093FCE5E7FC01002031
:100F7000FC000020F80100207000002038B5244B50
:100F80001868437923F08002940004F180411D0623
:100F900001F5B84156BF09680D6801F440551D4977
:100FA00048BF05F0300509788A4201D3022038BDD8
:100FB0004288002AFAD1002DF8D0827A002AF5D092
:100FC00004F1804404F5B84413F0800F236811D075
:100FD00023F4E04323F040039BB283F0100343F477
:100FE000004343F0800323600B4B1B689B699847C9
:100FF000002038BD23F4804323F070039BB283F4B8
:10100000805343F4004343F080032360ECE700BFC8
:10101000FC010020FC000020F8010020054B1B68AB
:101020005A8A10B108681044704789888A1A1A824F
:10103000704700BFFC01002010B50B4B002093F857
:101040002C1000F093FC094B1B68187A082806D175
:101050000749084B4FF4805410220C801A80B0F1DD
:1010600009035842584110BD70000020FC010020C7
:10107000020200200402002070B5A84BA84C196899
:10108000A84A236889B20A44197A5200092982B011
:10109000156849D0ADB26D0005F1804505F5C04534
:1010A0002A781A7023686A785A70A888266800F02F
:1010B0008FFC70802889266800F08AFCB080AA899D
:1010C00023680121DA801972002A32D05878062864
:1010D00000F08580002845D15988002900F09280D1
:1010E000914D2B681B699847032823684AD01A8AB8
:1010F0004FF6FF718A4245D002280FD072B193F9A2
:1011000000100029C0F2B38088494FF440500322F8
:1011100008801A72FFF790FF02B070BD08221A72A1
:10112000FFF78AFF02B070BDDA8801211972002A28
:10113000CCD11A785D7812F07F0229D0012A00F014
:10114000AC80022A00F0CD80774B28461B685B6993
:101150009847032800F00481002831D02368082232
:101160001A72D7E708285FD11A785206B8D1704AA8
:1011700000209A615882904723684FF6FF711A8ABF
:101180008A42BBD109221A72FFF756FF02B070BD26
:10119000092D00F0D980052D00F09480032D00F07A
:1011A000AC80012DD0D1DA78012ACDD19A88002ADD
:1011B000CAD15B7A9906C7D5FFF772FE0028C3D162
:1011C000564A5C4B1268002192B213445B001960CE
:1011D000594A30212368118006221A729AE71A7838
:1011E00052067FF47DAF9A784F4D012A00F0B2800D
:1011F000022A61D0032A7FF474AF2A68526A002A57
:10120000B6D16EE75A6822F47F42B2F5003F7FF410
:1012100067AF1A7812F07F0240F0A6809A88002A01
:101220007FF45EAF454AA3E70A287FF459AF1A78E6
:1012300002F07F02012A7FF453AF9A7A002A3FF42A
:101240004FAF598800297FF44BAF5A68364D22F4CE
:101250007F42B2F5803F7FF444AF58792B689B6999
:1012600098472368002800F0C080587839E7D9886B
:1012700001910198824218D88A4280F098802A49C8
:10128000096891F82C108A4280F096802C4A002040
:1012900010709982FFF762FD42E70B2D7FF454AF87
:1012A000FFF7D6FD00288BD04EE71F4A0199126840
:1012B000198292F82C10ECE72A68126A002A7FF44F
:1012C00057AF0EE793F90320002A07DB9A782AB973
:1012D0009A881AB99A7A002A3FF472AF08221A72D1
:1012E00018E7012D3FF468AF032D7FF42DAFFFF712
:1012F00045FE00283FF464AF26E7DA78012A7FF440
:1013000023AF9A88002A7FF41FAF597A0D4A41F023
:10131000200112685972D369984751E7505C004028
:10132000FC01002004300020D40100200202002033
:10133000750C00080230002004020020C50C0008D3
:101340008C010020F8010020FFF764FD00283FF425
:1013500037AFF9E62A68D269002A7FF409AFC0E600
:10136000236809221A72D5E6012A30D0022A7FF4B6
:10137000B7AE5A7902F00F05A90001F180411606B7
:1013800001F5B84156BF09680E6801F44056184986
:1013900048BF06F0300609788D42BFF4A1AE12F0C6
:1013A000700F7FF49DAE002E7FF43CAF98E6114A9B
:1013B000126892F82C106CE792FBF1F001FB1022FE
:1013C000002A7FF466AF0C4A0120107061E7094DD6
:1013D00058792B689B69984720B923689A7A002A24
:1013E0007FF420AF236858787BE6044AC0E600BF4C
:1013F000FC000020D40100208C0100209D0C00087E
:10140000F8B5314D2C68237A022B07D0042B05D078
:10141000032B09D0052B07D0072B0ED008232372EE
:10142000BDE8F840FFF708BEA169238A11B35BB994
:10143000A38A002B40D0254A2EE0254B1B68DB6891
:1014400098472C680823EAE7A68A9E4228BF1E46D2
:1014500030468847228A638A921B33446382074658
:101460002282002000F066FA32460146384600F03B
:1014700091F9238A002BDBD0164B00204FF4405209
:1014800001461A8000F064FA238AA18A0F4A3020AC
:101490009942108010D99BB92B6806200E4918720A
:1014A00009680E4B89B20B445B00002119602C685F
:1014B0003021237A1180B2E72C6803232372AEE730
:1014C0002C6805232372AAE7FC01002004020020F7
:1014D000D401002002020020505C004002300020B5
:1014E00070B40C4B1E787EB10B4C0023256843F47E
:1014F000004140F60F722A4041F0800101330A4357
:101500009E4244F8042BF1D8044B40F08000186050
:1015100070BC7047FC000020005C00404C5C004048
:1015200010B5184C2268137A022B17D0042B15D053
:10153000062B05D008231372BDE81040FFF77CBDD1
:101540005378052B13D0104B1B689B689847226873
:1015500008231372BDE81040FFF76EBDFFF7FEFBD6
:101560002268137A1372BDE81040FFF765BD137847
:101570005B06E8D1D078FFF7B3FF044B1B681B6A0A
:101580009847E0E7FC010020D4010020F80100208A
:10159000704700BF70B5074A074E084C084B094911
:1015A000094802252360326015721B68086098475D
:1015B00070BD00BFDC010020FC010020D401002030
:1015C00070000020F8010020A00000202DE9F04F5D
:1015D000DFF87CA183B00023DFF86C91DFF874B1F1
:1015E000554DD046ADF80630DBF80030534C9AB27A
:1015F0001B04534E4BF6BF714F4FAAF8002040F129
:101600009080B8F8003003F00F039A0002F1804296
:1016100002F5B84289F8003073BB23689BB22B8077
:101620002B8803F0300333802B8803F440532B8046
:101630002368194081F4005181F0200141F40041F8
:1016400041F080012160B8F80030DA0642D5236805
:101650009BB2ADF80630BDF806301B0564D4BDF86A
:1016600006301BB2002BBFDA226840F68F7313409E
:101670002360FFF7C5FE34E013689BB2ADF8063077
:10168000BDF806301BB2002B17DBBDF806301A067A
:10169000AAD599F8003048F60F729B0003F18043F9
:1016A00003F5B8431C68274922401A6099F80030B6
:1016B000013B51F82330984796E7116840F68F7345
:1016C0000B401360204B1A78204B013A53F822301C
:1016D0009847DAE7226848F60F7313402360FFF754
:1016E0001FFF21683A884BF6BF73D5043A8801EA98
:1016F000030348BF83F480539404328848BF83F4C3
:101700000053D006328848BF83F01003910648BFCB
:1017100083F0200343F4004343F08003074A9BB265
:10172000136003B0BDE8F08F226840F68F7313405A
:101730002360FFF7A1FCD4E702020020005C004018
:101740000402002030000020D80100204C000020BE
:1017500044020020445C004001F10051013201F5D7
:101760004051531010B44FEA41010FD00A1D02300E
:1017700010F8014C10F8021C013B41EA042122F848
:10178000041C00F1020002F10402F1D15DF8044BE7
:10179000704700BF01F10051013201F54051531073
:1017A0004FEA410105D051F8042B013B20F8022BF0
:1017B000F9D170474FF6F873014A03401360704740
:1017C000505C0040800000F1804000F5B8400368A4
:1017D00023F4EC4323F0700319438BB2036070478A
:1017E000800000F1804000F5B8400368CA0623F489
:1017F000E04323F040039BB248BF83F010038A0606
:1018000048BF83F0200343F4004343F080030360A8
:10181000704700BF800000F1804000F5B8400368C9
:10182000CA0423F4804323F070039BB248BF83F4BF
:1018300080538A0448BF83F4005343F4004343F0C9
:1018400080030360704700BF800000F1804000F516
:10185000B840036823F4804323F070039BB283F401
:10186000405343F4004343F080030360704700BFDC
:10187000800000F1804000F5B840036840F60F6238
:10188000134043F4004343F080030360704700BFFC
:10189000800000F1804000F5B84003685B0408D583
:1018A000026840F60F73134043F4404343F0800353
:1018B00003607047800000F1804000F5B840036885
:1018C0005B0608D5026840F60F73134043F40043EB
:1018D00043F0C00303607047064B49081B6849008A
:1018E0009BB203EBC00000F1005000F540504000F7
:1018F00001607047505C0040054A064B1268490879
:1019000092B202EBC000034449005B0019607047CB
:10191000505C004004300020054B1B689BB203EB79
:10192000C00000F1005000F54050400000887047B2
:10193000505C0040044A054B126892B202EBC000B2
:1019400003445B0018887047505C0040043000205E
:10195000044A054B126892B202EBC00003445B00DC
:1019600019607047505C0040023000200E4A0F4B57
:1019700012683E2992B202EBC00003444FEA4303CF
:101980000AD94A09C80604BF02F1FF3292B2920294
:1019900042F400421A6070474A08C90748BF013242
:1019A00092021A60704700BF505C00400630002071
:1019B000054A064B126892B202EBC00003445B007A
:1019C0001868C0F309007047505C004006300020E2
:1019D000C3B2000A40EA0320704700BF10B40649B2
:1019E000064C074A00204FF43F4320600B801360F1
:1019F0005DF8044B704700BF00020020445C0040CB
:101A0000405C004070B500F07F0528460E46FFF7A9
:101A1000CFFF04462846FFF78DFF22460146304699
:101A2000FFF7B8FE204670BD30B492B1551EEDB23E
:101A3000013500236D001C46020F092A94BF303285
:101A40003732CA54CA180233AB424FEA00105470FE
:101A5000F2D130BC704700BF10B54FF0805001216B
:101A6000FEF7B2FC10200121FEF7A2FC012120208C
:101A7000FEF79EFC4FF48020FEF728FC064B4FF447
:101A80008024082101221C6059719A711846BDE812
:101A90001040FEF7D1BB00BF1402002008B50020A3
:101AA000FEF780FCBDE808404FF400000121FEF77E
:101AB0008BBC00BF064B9B7A23B9064B01221A60F0
:101AC000FFF754B8034B05221A60FFF74FB800BF69
:101AD000DC010020A001002010B54FF4A06082B00E
:101AE000FEF768FB01241421022201A800238DF8CF
:101AF00004108DF805208DF806308DF80740FEF7AC
:101B000063FB2A2301A88DF805408DF80430FEF709
:101B10005BFB02B010BD00BF20B905484FF4005177
:101B2000FEF73CBC02484FF40051FEF739BC00BF41
:101B30000010014010B50A4A0A4B12681B680A4996
:101B4000D0180C6800D110BD08490822FFF76CFFBF
:101B5000204607490422BDE81040FFF765BF00BFDB
:101B6000E8F7FF1FF0F7FF1FECF7FF1F160000203C
:101B700026000020704700BFFEE700BFFEE700BF61
:101B8000FEE700BFFEE700BF704700BF704700BF21
:101B9000704700BF704700BF00F026B84FF48020A8
:101BA000FEF794BB08B501200949FFF72BFF094B4D
:101BB000012209481A70FEF76DFDFEF7B7FDFF28F8
:101BC000FBD001204FF44051BDE80840FFF722BE92
:101BD00020020020A801002021020020014B012248
:101BE0001A7070470000002070B55D4B5D4C1B689B
:101BF0005D4D9BB2238022882B8888B01A40100448
:101C00005ED4228802F48062134250D1228802F40A
:101C10000052134204D0524B4DF6FF721A602B88CB
:101C2000228802F48052134238D1228802F40062E2
:101C300013420FD04D4B1B7823B14D4B1B68052B26
:101C400000F08680022000F041FA454B4FF2FF720F
:101C50001A602B88228802F40072134209D0404B8C
:101C60004FF6FF51434A196011782B880131C9B2F0
:101C70001170228802F4807213420DD0384A4FF658
:101C8000FF613D4B11601B6819041DD43B4B0022C2
:101C90001A60072000F01AFA08B070BD304B4EF6FB
:101CA000FF721A60002000F011FA2B88BDE72C4A61
:101CB0004FF6FF31324B11605B6898472B88A5E7E0
:101CC000FFF784FC2B889CE72C490B6801330B60E1
:101CD0000B68032BDDD952F8043C043A13F00803D7
:101CE000D7D11068274D80B2403A286052F8044B93
:101CF00008AE06EB83000133A4B2082B40F8204C59
:101D0000F4D12A68204B42F001022A602868144A64
:101D100080B21860286820F001002860286880B22E
:101D2000186013680E485B05FBD54FF6FF33174A62
:101D30000360002308AC04EB830050F8200C01334F
:101D400080B2082B42F8040BF4D100230B60A0E70B
:101D50000F4BDA6842F08002DA6000F045F974E770
:101D6000445C0040440200200002002000010020EA
:101D7000A001002094010020485C00409801002050
:101D80007000002090010020405C0040005C00409A
:101D9000000C0140034B9B7A13B1034B05221A60E0
:101DA000704700BFDC010020A0010020014B04228D
:101DB0001A607047A0010020704700BF704700BF45
:101DC00010B5144B06281B681A7802F07F0203D066
:101DD000212A0DD0022010BD012AFBD15A79002AF8
:101DE000F8D19A78222A13D0212AF3D10A4A06E0A0
:101DF00003280BD00928EDD1084A1070084A0024A6
:101E000020469A615C829047204610BD054AF6E75D
:101E1000054AF4E7FC010020AD1F00089C010020EA
:101E20002D1E00087D1E0008A11F000808B10348F0
:101E30007047034B40221B681A8270474C020020F7
:101E4000FC010020074B1B681A7802F07F02212A50
:101E500001D0022070470B28FBD1DA78024B00201A
:101E60001A607047FC0100204802002009B10220DE
:101E7000704700280CBF00200220704708B10348BB
:101E80007047034B01221B681A82704748020020EA
:101E9000FC01002010B5FFF74DFE054B00241B6828
:101EA0009C7200F089F8FFF799FD024B1C6010BD91
:101EB000FC010020A001002010B5274B274A1B6819
:101EC000D27900245A729C72DC722046FFF772FCB1
:101ED00020464FF40071FFF775FC20461021FFF7F4
:101EE0007FFC20461821FFF707FD58212046FFF709
:101EF000F3FC2046FFF7BCFC194B204693F82C104E
:101F0000FFF734FD2046FFF79FFC01204FF4C0612E
:101F1000FFF758FC01204FF48071FFF7DDFC012032
:101F20004FF4A071FFF7E8FC01204021FFF710FDFE
:101F300001202121FFF71AFD01204FF44051FFF746
:101F400069FC01202021FFF74BFC2046FFF7C8FA6F
:101F5000044B01221A6010BDFC0100206C22000815
:101F600070000020A00100200149FFF757B800BF12
:101F7000D40000200149FFF751B800BF68000020DD
:101F8000054B1B68DB78042B04D8044901EBC30123
:101F9000FFF744B800207047FC010020DC0000205F
:101FA0000149FFF73BB800BFCC0000200149FFF713
:101FB00035B800BFC400002038B50120FFF7ACFDE4
:101FC000064D074B074C00224FF4E05101201860EA
:101FD0001A602A6021801960104638BD445C0040B8
:101FE000405C00400002002070B4324A83B00023FD
:101FF000019314683049403AA4B252F8040B80B2FD
:1020000041F823000133082BF7D124F00105294BB7
:1020100044F48060ADB2044645F4806640F00100AF
:10202000264A1C6018601E60136824485E05FBD5B4
:102030004FF6FF33224A0360002351F82300013397
:1020400080B2082B42F8040BF7D11A4B45F4816596
:102050001D601A681B4992B242F004021A600868B7
:10206000194A01900C68154824F0030444F0010457
:102070000C60146944F0040414610468E40410D58D
:102080004EF6FF7404601C684FF6F770204018602D
:10209000019B0B60136923F00403136103B070BC50
:1020A000704730BF136923F00403136103B070BCA1
:1020B000704700BF405C004094020020445C004038
:1020C000005C00400070004000ED00E038B5344B8B
:1020D000344CDA68072822F08002DA6018BF2070DA
:1020E0002378052B4BD8DFE803F0181F30353F036A
:1020F00063782C49013BDBB26370637803F0FF0225
:10210000002B3ED128484FF6EF730568274C2B4033
:10211000062503600D70226038BD244B1B68002B20
:1021200030D00523237038BD1F4D4FF6FB732A684E
:1021300013402B60FFF7BEFC1C4B4FF43F400421C3
:102140000122286021701A6038BD022203236270C8
:10215000237038BD6378134A013BDBB26370637848
:102160007BB90423137038BD0F4B052118680A2270
:1021700080B240F0100018602170627038BD0623F4
:10218000237038BD084D4FF6FB732A6813402B604F
:10219000FFF790FC4FF43F4206232A60237038BDBE
:1021A000000C014090020020405C0040A40100208F
:1021B00008B5074B044613B10021AFF30080054B6F
:1021C0001868836A03B19847204600F033F800BFCF
:1021D000000000000C23000870B50E4B0E4D0024CB
:1021E000ED1AAD101E46AC4204D056F8242090479C
:1021F0000134F8E700F020F8084D094B0024ED1AEF
:10220000AD101E46AC4204D056F82420904701344D
:10221000F8E770BD6401002064010020680100201F
:102220006401002002440346934202D003F8011BDC
:10223000FAE77047FEE70000F8B500BFF8BC08BC3D
:102240009E467047F8B500BFF8BC08BC9E46704774
:10225000040309041603520048004900440020000A
:10226000530054004D0033003200000009022900E1
:10227000010100E03209040000020300000009210E
:1022800001010001225000070581034000200705DD
:1022900001034000010000001201000200000040A4
:1022A0008304115700010102030100000600FF0929
:1022B00001A10185010901150026FF00750895207F
:1022C000B18285010901918285020902150025016B
:1022D00075089501B182850209029182850309037F
:1022E000150026FF0075089501B182850309039149
:1022F0008285040904750895048182C00A0352008E
:1023000061004A0061000000430000000401002059
:0423100000000000C9
:082314002CDEFF7F0100000038
:10231C0001000000E7E7E7E7E70000007E7E7E7E35
:10232C007E0000001A03520048002D0030003000DF
:10233C003000310000000000000000000000000030
:10234C00DD1B000891150008911500089115000877
:10235C00911500089115000891150008A51B00089F
:10236C0091150008911500089115000891150008A9
:10237C0091150008911500086C2200082900000036
:10238C00951E0008B91E0008B91D0008BD1D0008E7
:10239C00C11D0008451E00086D1E0008691F0008BD
:1023AC00751F0008811F000800000000400000009D
:1023BC0091150008951D000891150008911500084D
:1023CC009115000891150008911500089115000849
:1023DC00AD1D00087E22000809000000AC22000898
:1023EC005000000098220008120000005022000843
:1023FC0004000000FC2200080A000000542200081F
:10240C0016000000140000201A0000000201000059
:10241C0001000000000000000000000000000000AF
:10242C0000000000000000000000000000000000A0
:10243C00000000000823000800000000000000005D
:10244C000000000000000000000000000000000080
:10245C000000000000000000000000000000000070
:10246C000000000000000000000000000000000060
:0C247C000000000011010008ED00000845
:0400000508000000EF
:00000001FF
