:020000040800F2
:1000000000500020F12A0008372B0008392B000887
:100010003B2B00083D2B00083F2B00080000000090
:10002000000000000000000000000000412B00085C
:10003000432B000800000000452B0008472B000858
:100040004B2B00084D2B00084F2B0008512B0008AC
:10005000532B0008552B0008572B0008592B00087C
:100060005B2B00085D2B00085F2B0008612B00084C
:10007000632B0008652B0008672B0008692B00081C
:100080006B2B00086D2B00086F2B0008712B0008EC
:10009000732B0008752B0008772B0008792B0008BC
:1000A0007B2B00087D2B00087F2B0008812B00088C
:1000B000832B0008852B0008872B0008892B00085C
:1000C0008B2B00088D2B00088F2B0008912B00082C
:1000D000932B0008952B0008972B0008992B0008FC
:1000E0009B2B00089D2B00089F2B000810B5054C8A
:1000F000237833B9044B13B10448AFF300800123D4
:10010000237010BD9C00002000000000582E000845
:1001100008B5064B1BB106480649AFF300800648F8
:10012000036813B1054B03B1984708BD00000000F8
:10013000582E0008A00000209C00002000000000B5
:10014000154B002B08BF134B9D46A3F5803A0021A9
:100150008B460F461348144A121A02F019FE0F4B31
:10016000002B00D098470E4B002B00D09847002062
:10017000002104000D000D48002802D00C48AFF308
:10018000008002F0DFFD2000290001F0BFFC02F03A
:10019000C5FD00BF00000800005000200000000066
:1001A000000000009C000020AC07002000000000C0
:1001B0000000000080B489B000AF7860396000238F
:1001C000FB6100233B610023BB610023FB60002334
:1001D0007B610023BB603B68DB7803F00F03FB61AE
:1001E0003B68DB7803F01003002B04D03B689B785E
:1001F000FA691343FB613B681B88DBB2002B44D0D8
:100200007B681B687B610023BB6138E0BB6901220E
:1002100002FA03F3FB603B681B881A46FB68134035
:100220003B613A69FB689A4226D1BB699B00FB603F
:10023000FB680F2202FA03F3BB60BB68DB437A69F9
:1002400013407B61FB68FA6902FA03F37A6913438E
:100250007B613B68DB78282B05D1BB6901229A4082
:100260007B685A6108E03B68DB78482B04D1BB69A6
:1002700001229A407B681A61BB690133BB61BB698B
:10028000072BC3D97B687A691A603B681B88FF2BF0
:1002900046D97B685B687B610023BB613AE0BB6940
:1002A0000833012202FA03F3FB603B681B881A46FD
:1002B000FB6813403B613A69FB689A4227D1BB69EE
:1002C0009B00FB60FB680F2202FA03F3BB60BB6874
:1002D000DB437A6913407B61FB68FA6902FA03F336
:1002E0007A6913437B613B68DB78282B05D1BB69B6
:1002F000083301229A407B685A613B68DB78482BBF
:1003000005D1BB69083301229A407B681A61BB6939
:100310000133BB61BB69072BC1D97B687A695A601D
:100320002437BD465DF8047B704700BF80B483B0BE
:1003300000AF78600B467B807A887B681A610C3747
:10034000BD465DF8047B704780B483B000AF786031
:100350000B467B807A887B685A610C37BD465DF816
:10036000047B704780B487B000AF78600B46FB70A9
:1003700000233B610023FB6000237B610023BB6003
:100380007B68002B03DA2E4BDB697B6102E02C4B90
:100390005B687B617B6803F470231B0CBB607B682C
:1003A0009BB23B617B6803F44013B3F5401F0AD155
:1003B0007B6923F070637B61214B214A526822F0F4
:1003C00070625A6021E07B6803F48013002B0ED02A
:1003D000BB68032202FA03F3FB60FB68DB437A6924
:1003E00013407B617B6943F070637B610DE07B6848
:1003F0005B0D1B013A6902FA03F3DB437A69134090
:100400007B617B6943F070637B61FB78002B08D0D4
:100410007B685B0D1B013A6902FA03F37A691343A7
:100420007B617B68002B03DA054B7A69DA6102E0B5
:10043000034B7A695A601C37BD465DF8047B7047F0
:100440000000014080B483B000AF78600B46FB70C1
:10045000FB78002B06D0094B084A91697A680A4359
:100460009A6106E0054B054A91697A68D2430A40D1
:100470009A610C37BD465DF8047B7047001002405E
:1004800080B483B000AF78600B46FB70FB78002B24
:1004900006D0094B084AD1697A680A43DA6106E056
:1004A000054B054AD1697A68D2430A40DA610C37B4
:1004B000BD465DF8047B70470010024080B485B0F3
:1004C00000AF786039600023FB817B681B88FB816B
:1004D000FB8903F44153FB813B681A883B685B88C6
:1004E00013439AB23B689B8813439AB23B68DB88FC
:1004F00013439AB23B681B8913439AB23B685B89EA
:1005000013439AB23B689B8913439AB23B68DB89D9
:1005100013439AB2FB891343FB817B68FA891A80E3
:100520007B689B8B9BB223F400639AB27B689A83AF
:100530003B681A8A7B681A821437BD465DF8047BD3
:10054000704700BF80B483B000AF78600B46FB708B
:10055000FB78002B08D07B681B889BB243F04003DC
:100560009AB27B681A8007E07B681B889BB223F0F5
:1005700040039AB27B681A800C37BD465DF8047B55
:10058000704700BF80B483B000AF78600B467B80BB
:100590007A884FF6FF639A4208D07B681B889BB22B
:1005A00043F480739AB27B681A8007E07B681B88EB
:1005B0009BB223F480739AB27B681A800C37BD46D5
:1005C0005DF8047B704700BF80B485B000AF7860F1
:1005D0000B467B800023FB737B681B899AB27B8868
:1005E00013409BB2002B02D00123FB7301E00023D8
:1005F000FB73FB7B18461437BD465DF8047B7047E0
:1006000080B584B000AFF860B9607A60F868796846
:1006100000F038F87B680E337B60B868796800F0CA
:100620005BF81037BD4680BD80B483B000AF786002
:1006300039607B681A8844F642539A4201D00123FC
:1006400019E03B685B68F02B01D0012313E03B68A5
:100650009B68B3F5A07F01D001230CE03B68DB89E8
:10066000182B01D0012306E03B681B69002B01D049
:10067000012300E0002318460C37BD465DF8047BDB
:10068000704700BF80B483B000AF786039603B68CA
:100690001A887B681A803B6802333B603B681A68A3
:1006A0007B685A603B6804333B603B681A887B6810
:1006B0001A813B6802333B603B681A887B685A8129
:1006C0003B6802333B603B681A687B68DA600C3732
:1006D000BD465DF8047B704780B483B000AF78609E
:1006E00039603B681A687B681A603B6804333B607A
:1006F0003B681A687B685A603B6804333B603B6820
:100700001A687B689A603B6804333B603B681A88D0
:100710007B689A813B6802333B603B681A887B6840
:10072000DA813B6802333B603B681A687B681A6178
:100730003B6804333B603B681A687B685A613B68DE
:1007400004333B603B681A687B689A613B680433FA
:100750003B603B681A687B68DA613B6804333B6046
:100760003B681A687B681A623B6804333B603B68ED
:100770001A687B685A620C37BD465DF8047B704787
:1007800080B582B000AF08200121FFF75BFE40F684
:100790000343BB804823FB710323BB713B1D03480C
:1007A0001946FFF707FD0837BD4680BD000C014024
:1007B00080B483B000AF78607B6800221A807B68C9
:1007C00000225A807B6800221A717B6800225A71CD
:1007D0007B68094A9A607B6800229A817B680022C4
:1007E000DA817B6800221A617B6800225A610C372B
:1007F000BD465DF8047B7047000C014080B584B0B5
:1008000000AF786039607B689B689B689AB27B68B0
:100810009B891340FB817B68DB89FA899A4214BF6C
:10082000002301237B737B685B7983F00103DBB2D8
:10083000002B0DD07B681B797A7B9A4208D07B68AD
:1008400001225A717B6800225A807B6800221A803C
:100850007B685B79002B3BD07B7B002B07D07B68D0
:100860001B889BB201339AB27B681A8006E07B68D2
:100870001B889BB2013B9AB27B681A807B685B88BD
:1008800001339AB27B685A807B685B88B3F57A7FC4
:100890001ED17B681B881BB2002B0BDD7B681B699C
:1008A000002B03D07B681B69386898477B6801225E
:1008B0001A710AE07B685B69002B03D07B685B6977
:1008C000386898477B6800221A717B6800225A7149
:1008D0001037BD4680BD00BF80B485B000AF7860E2
:1008E0007A6813469B0013447B600023FB6002E0A0
:1008F000FB680133FB60FA687B689A42F8DB1437C7
:10090000BD465DF8047B704780B584B000AF786069
:100910000023FB6006E04FF47A70FFF7DDFFFB6811
:100920000133FB60FA687B689A42F4DB1037BD46FE
:1009300080BD00BF80B500AF01F01AFF002318464C
:1009400080BD00BF80B584B000AFF860B960FA80A8
:10095000BB80FB68002B01D102230BE0FA88BB8827
:10096000F868B96801F08EFE0346002B01D0012320
:1009700000E0002318461037BD4680BD80B487B024
:1009800000AFF860B9607A60FB687B6105E07B6965
:100990005A1C7A61BA68D2B21A707B685A1E7A60A1
:1009A000002BF4D11C37BD465DF8047B704700BFB7
:1009B00080B489B000AFF860B9607A60FB68FB6111
:1009C000BB68BB6100237B6100BF7B685A1E7A60F5
:1009D000002B0DD0FB695A1CFA611B781A46BB69C3
:1009E000591CB9611B78D31A7B617B69002BECD051
:1009F0007B6918462437BD465DF8047B704700BF0D
:100A000080B584B000AF78601D4B1B68FB607B68CD
:100A1000012B04D9FB689A687B689A4201D80123AC
:100A200029E0FB681B78032B24D1FB68DA687B681C
:100A3000DB091A447B689BB203F07F039BB29B00E7
:100A40009BB207F10801084611461A460423FFF736
:100A500079FF0346002B00D00CE0FB7A1A06BB7A24
:100A60001B041A437B7A1B021A433B7A134323F07D
:100A7000704300E0012318461037BD4680BD00BF1B
:100A8000B800002080B485B000AF78600D4B1B68C3
:100A9000FB607B68023B7B60FB689B689A1E7B68FF
:100AA0009A4201D8002307E0FB689B787A6802FB32
:100AB00003F2FB685B69134418461437BD465DF8C2
:100AC000047B7047B800002080B485B000AF786028
:100AD000144B1B68FB600023BB607B6815331B78DD
:100AE0001B029AB27B6814331B7813439BB29BB2F0
:100AF000BB60BB681B04BB607B681B331B781B029D
:100B00009AB27B681A331B7813439BB29BB2BA68C4
:100B10001343BB60BB6818461437BD465DF8047BC1
:100B2000704700BFB800002080B584B000AF786087
:100B3000134B1B68BB607B6800221A807B689B6834
:100B4000FB60FB68012B04D0BB689A68FB689A4283
:100B500001D801230FE0FB68002B02D1BB681B69A1
:100B6000FB607B68FA68DA60F868FFF78BFF024683
:100B70007B681A61002318461037BD4680BD00BF50
:100B8000B800002080B586B000AF7860294B1B68A4
:100B90007B617B681B8801337B827B8A002B03D0BF
:100BA0007B681B69002B01D103233EE07B8A03F0A5
:100BB0000F039BB2002B34D17B681B695A1C7B68E6
:100BC0001A617B68DB68002B06D17B699B887A8A77
:100BD0009A4226D3032328E07B8A1B099BB21A463C
:100BE0007B699B78013B1340002B1AD17B68DB6843
:100BF0001846FFF705FFF860FB68012B01D80123B9
:100C000013E07B699A68FB689A4201D803230CE0E1
:100C10007B68FA68DA60F868FFF734FF02467B68A1
:100C20001A617B687A8A1A80002318461837BD46F5
:100C300080BD00BFB800002080B584B000AF7860F0
:100C400039607868FFF770FF0346FB73FB7B002B6E
:100C500001D0FB7B3DE07B681A697B681B8803F051
:100C60000F039BB25B019BB2386811461A462023E2
:100C7000FFF768FE0346002B0CBF00230123DBB205
:100C8000FB73FB7B002B00D022E03B681B78BB731F
:100C9000BB7B002B02D10323FB7319E03B680B33B2
:100CA0001B7803F00803002B0AD17B685B68386867
:100CB00019460B22FFF77CFE0346002B00D107E00C
:100CC0007868FFF75FFF0346FB73FB7B002BC2D006
:100CD000FB7B18461037BD4680BD00BF80B584B091
:100CE00000AF786039600323FB733DE07B681A69CD
:100CF0007B681B8803F00F039BB25B019BB23868D3
:100D000011461A462023FFF71DFE0346002B0CBF99
:100D100000230123DBB2FB73FB7B002B00D027E019
:100D20003B681B78BB73BB7B002B02D10323FB7397
:100D30001EE03B680B331B7803F03F037B73BB7BE8
:100D4000E52B08D0BB7B2E2B05D07B7B03F0080363
:100D5000002B00D10CE07868FFF714FF0346FB730B
:100D6000FB7B002B00D003E07B681B69002BBDD10F
:100D7000FB7B002B02D07B6800221A61FB7B1846AC
:100D80001037BD4680BD00BF80B586B000AF78602B
:100D900039607B685B683B61386920210B22FFF773
:100DA000EDFD00233B753B7D7B750823BB753B68E0
:100DB0001B68FB607B7D5A1C7A75FA6813441B78AC
:100DC000FB75FB7D202B2FD9FB7D2F2B2CD0FB7DA2
:100DD0002E2B03D03A7DBB7D9A420BD3BB7D082BD3
:100DE00022D1FB7D2E2B1FD108233B750B23BB7516
:100DF00000BFDFE7FB7D5BB2002B04DAFB7D803BAD
:100E0000134AD35CFB75FB7D602B05D9FB7D7A2BE8
:100E100002D8FB7D203BFB753B7D5A1C3A753A6935
:100E20001344FA7D1A70C5E77B7DFA681A443B6863
:100E30001A603B690B33FA7D202A8CBF0022012205
:100E4000D2B21A70002318461837BD4680BD00BFC5
:100E5000CC2D000880B487B000AFF860B9607A602C
:100E60007B6809333B61FB681B69002B6ED0002354
:100E7000FB7515E0FB7DBA6813441B78BB75BB7D21
:100E8000202B00D10FE0BB7D052B01D1E523BB75E5
:100E90003B695A1C3A61BA7D1A70FB7D0133FB75C0
:100EA000FB7D072BE6D9BB6808331B78202B1BD0B2
:100EB0003B695A1C3A612E221A700823FB7510E018
:100EC000FB7DBA6813441B78BB75BB7D202B00D11A
:100ED0000AE03B695A1C3A61BA7D1A70FB7D013306
:100EE000FB75FB7D0A2BEBD9BB68DA7A7B681A723B
:100EF000BB681F331B781A06BB681E331B781B04A4
:100F00001A43BB681D331B781B021A43BB681C3392
:100F10001B781A437B681A60BB6819331B781B0265
:100F20009AB2BB6818331B7813439BB29AB27B68A2
:100F30009A80BB6817331B781B029AB2BB681633C2
:100F40001B7813439BB29AB27B68DA803B6900221C
:100F50001A701C37BD465DF8047B704780B586B0BB
:100F600000AFF860B9607A6002E07B6801337B60B3
:100F70007B681B78202BF8D07B681B782F2B02D145
:100F80007B6801337B60FB6800229A607B681B787A
:100F90001F2B08D8F868FFF7C7FD0346FB75BB6831
:100FA00000221A702CE03B1DF8681946FFF7ECFE92
:100FB0000346FB75FB7D002B00D021E0F868B96883
:100FC000FFF73AFE0346FB75FB7D002B00D017E0D0
:100FD000FB685B680B331B78002B00D010E0BB680C
:100FE0000B331B7803F01003002B02D10323FB7596
:100FF00006E0B868FFF768FD0246FB689A60D2E732
:10100000FB7D18461837BD4680BD00BF80B582B055
:1010100000AF78603960786839684FF4FF72022356
:10102000FFF790FC0346002B01D0032328E07B68E8
:1010300001331B781B029AB27B681B7813439BB267
:101040001AB2114B9A4201D0022319E0786839682C
:1010500052220223FFF776FC0346002B0FD17B6858
:1010600001331B781B029AB27B681B7813439BB237
:101070001AB244F246139A4201D1002300E0012340
:1010800018460837BD4680BD55AAFFFF80B590B011
:1010900000AF78607D4B00221A60FFF74BFC0346DF
:1010A00003F00103002B01D00223EBE00023BB631C
:1010B00007F108031846B96BFFF7A8FF034687F846
:1010C0003F3097F83F30012B26D107F1080318462F
:1010D000B96B4FF4DF721023FFF734FC0346002B8B
:1010E00003D0032387F83F3016E03B7B002B13D05F
:1010F000FB7C1A06BB7C1B041A437B7C1B021A4335
:101100003B7C1343BB6307F108031846B96BFFF739
:101110007DFF034687F83F3097F83F30032B01D11E
:101120000123AFE097F83F30002B01D00623A9E060
:1011300007F108031846B96B0D222423FFF702FCC0
:101140000346002B01D001239CE0BB7C1B029AB21A
:101150007B7C13439BB29BB27B637B6B002B0DD1DB
:1011600097F822301A0697F821301B041A4397F893
:1011700020301B021A43FB7F13437B63FB7A1A4622
:101180007B6B02FB03F37B63BB7A1B029AB27B7A15
:1011900013439BB29BB21A46BB6B1A447B68DA605E
:1011A0003A7A7B689A707B7B1B029AB23B7B134333
:1011B0009BB29AB27B689A80FB7B1B029AB2BB7B84
:1011C00013439BB29BB23B633B6B002B0AD1BB7FAB
:1011D0001A067B7F1B041A433B7F1B021A43FB7ECC
:1011E00013433B63BB7A1B029AB27B7A13439BB2D5
:1011F0009BB23A6BD21A7B6BD21A7B689B881B0915
:101200009BB2D21A7B689B78B2FBF3F30233FB628A
:101210007B68FA6A9A60002387F83F30FA6A4FF6D3
:10122000F6739A4202D9032387F83F3097F83F308C
:10123000002B01D1062325E07B6897F83F201A7028
:1012400097F82A301A0697F829301B041A4397F8A2
:1012500028301B021A4397F827301A437B681A611B
:101260007B68DA687B6B1A447B689B881B099BB29E
:101270001A447B685A617B6800225A70034B7A6873
:101280001A60002318464037BD4680BDB8000020D4
:1012900080B594B000AF7860264B1B68FB64FB6C94
:1012A000002B01D1052341E0FB6C00225A7007F1AD
:1012B0002803BB6307F1340207F1080310461946FF
:1012C0007A68FFF74BFE034687F84B3097F84B30B0
:1012D000002B02D097F84B3028E03B7A002B04D04B
:1012E000FB7C03F01003002B01D003231EE007F169
:1012F00008031846FFF7E8FB0246FB6C1A6297F8F2
:1013000027301A0697F826301B041A4397F8253021
:101310001B021A4397F824301A43FB6CDA61FB6C0A
:1013200000229A61FB6C01225A7000231846503744
:10133000BD4680BDB800002090B58DB000AFF8600C
:101340000B467A607B81FB687B62554B1B683B6276
:101350007B6800221A803B6A002B01D105239AE0AA
:101360003B6A5B7803F00103002B01D1042392E078
:101370003B6ADA693B6A9B69D31AFB617A89FB692C
:101380009A4202D9FB697B8180E07FE03B6A9B69DE
:10139000C3F30803002B38D13B6A9B695B0ADAB2BE
:1013A0003B6A9B78013BDBB21340FB76FB7E002B54
:1013B00018D13B6A9B69002B03D13B6A1B6AFB6215
:1013C00005E03B6A5B6A1846FFF71AFBF862FB6AA6
:1013D000012B04D83B6A00225A7001235BE03B6A70
:1013E000FA6A5A623B6A5B6A1846FFF74BFB786100
:1013F0007B69002B04D13B6A00225A7001234AE02A
:10140000FA7E7B691A443B6A9A623B6A9B699BB28B
:10141000C3F308039BB2C3F500737B857A8D7B8988
:101420009A4201D97B897B85FB68002B01D07B6ABE
:1014300000E000233A6A916A3A6A926992B2C2F372
:10144000080292B27C8D18462346FFF77BFA0346CA
:10145000FB74FB7C002B04D03B6A00225A700123F2
:1014600019E03B6A9A697B8D1A443B6A9A617B8DCD
:101470007A6A13447B627A897B8DD31A7B817B687D
:101480001A887B8D13449AB27B681A807B89002B63
:101490007FF47CAF002318463437BD4690BD00BFB3
:1014A000B800002080B588B000AF7860474B1B685B
:1014B000BB61BB69002B01D1052382E0BB695B786E
:1014C00003F00103002B01D104237AE0BB69DA6940
:1014D0007B689A4202D2BB69DB697B60BB699B690E
:1014E0007B61BB6900229A617B68002B68D0BB6975
:1014F0009B785B023B617B69002B1BD07B685A1E8B
:101500003B69B2FBF3F27B69591E3B69B1FBF3F314
:101510009A420FD37B695A1E3B695B421A40BB69F2
:101520009A61BB699B697A68D31A7B60BB695B6A05
:10153000FB6124E0BB691B6AFB61BB69FA695A6203
:101540001DE0F869FFF75CFAF861FB69012B04D92B
:10155000BB699A68FB699A4204D8BB6900225A7039
:1015600001232EE0BB69FA695A62BB699A693B693B
:101570001A44BB699A617A683B69D31A7B607A68BE
:101580003B699A42DDD8BB699A697B681A44BB699A
:101590009A61F869FFF776FAF860FB68002B04D1CE
:1015A000BB6900225A7001230BE0BB699B695A0A90
:1015B000BB699B78013B1A40FB681A44BB699A627D
:1015C000002318462037BD4680BD00BFB80000206C
:1015D00080B590B000AF78603960204B1B68BB636A
:1015E000BB6B002B03D1052387F83F302FE07B68CE
:1015F00007F12C025A6007F10C03786819463A6823
:10160000FFF7ACFC034687F83F3097F83F30002BDC
:101610001DD13B7B002B10D0FB7D03F01003002B72
:1016200008D007F10C031846FFF74EFA02467B6814
:101630009A6002E0032387F83F3097F83F30002B91
:1016400005D17868FFF770FA034687F83F3097F8BE
:101650003F3018464037BD4680BD00BFB80000206F
:1016600080B590B000AF786039601F4B1B68BB63DA
:10167000BB6B002B03D1052387F83F302EE07B683E
:1016800007F12C025A603B68002B06D17868FFF7FF
:101690004BFA034687F83F3020E007F10C037868E7
:1016A0001946FFF71BFB034687F83F3097F83F309A
:1016B000032B02D1002387F83F3097F83F30002BEF
:1016C0000CD107F10C03786819463A68FFF7C2FBA2
:1016D0007868FFF757FA034687F83F3097F83F30AE
:1016E00018464037BD4680BDB800002080B582B0A6
:1016F00000AF04200121FEF7A5FE41F6FF73BB8079
:101700001023FB710323BB713B1D03481946FEF7F1
:1017100051FD0837BD4680BD0008014080B500AFCF
:1017200005484FF40061FEF70FFE03484FF40061D7
:10173000FEF7FCFD80BD00BF0008014080B483B00F
:1017400000AF0346FB71084B074AD26822F0FF0244
:10175000DA60054B044AD168FA790A43DA600C373B
:10176000BD465DF8047B70470008014080B582B03B
:1017700000AF0346FB7107484FF48061FEF7E4FDBC
:10178000FB791846FFF7DAFFFFF7C8FF0837BD46B9
:1017900080BD00BF0008014080B582B000AF0346A5
:1017A000FB7107484FF48061FEF7C0FDFB791846D6
:1017B000FFF7C4FFFFF7B2FF0837BD4680BD00BF8B
:1017C0000008014080B584B000AF3960134602467E
:1017D000FA71BB7113484FF48051FEF7A7FD114811
:1017E0004FF40071FEF7B0FDFB791846FFF7BEFF1E
:1017F0000023FB6009E0FB683A6813441B78184635
:10180000FFF7CAFFFB680133FB60BA79FB689A42B5
:10181000F1DC04484FF40071FEF788FD1037BD4637
:1018200080BD00BF0008014080B584B000AF024613
:101830000B46FA71BB7100233B73FB797B7300236A
:10184000BB73EF23FB7307F10C032A201946042214
:10185000FFF7B8FF00233B73BB797B730123BB7396
:101860004023FB7307F10C032B2019460422FFF7DA
:10187000A9FF1037BD4680BD80B500AF0020002114
:10188000FFF7D2FF09484FF48051FEF74FFD07489C
:101890004FF40071FEF758FD2C20FFF767FF034857
:1018A0004FF48061FEF742FD80BD00BF000801409B
:1018B00080B500AF02484FF40071FEF737FD80BDE0
:1018C0000008014080B485B000AF78601E4BDB6833
:1018D0009BB223F40F6323F00F03BB810023FB8132
:1018E00028E0194BB989FA897868024412780A43CA
:1018F000DA60154B4FF400621A61134BB989FA890B
:1019000001327868024412780A43DA600E4B4FF4D1
:1019100000621A610C4BB989FA8902327868024474
:1019200012780A43DA60084B4FF400621A61FB89AF
:101930000333FB81FB89B3F5347FD2D31437BD4623
:101940005DF8047B704700BF0008014080B582B09D
:1019500000AFFFF7CBFE18484FF48071FEF7F4FCA0
:1019600015484FF48071FEF7E1FC0A20FEF7CCFF2A
:1019700006233B71112000210022FFF723FF3B1DAE
:101980003A2019460122FFF71DFF132000210022F3
:10199000FFF718FF40233B713B1D362019460122FB
:1019A000FFF710FF292000210022FFF70BFF00BFE7
:1019B0000837BD4680BD00BF0008014080B582B039
:1019C00000AF10200121FEF73DFD4FF40053BB8016
:1019D0001023FB710323BB713B1D03481946FEF71F
:1019E000E9FB0837BD4680BD0010014080B582B0DC
:1019F00000AF02460B46FA71BB80FB79002B10D07A
:101A0000164B1B88BA889A4205D315484FF40051EB
:101A1000FEF79AFC0AE012484FF40051FEF786FCEC
:101A200004E00F484FF40051FEF780FC0B4B1B887D
:101A300001339AB2094B1A80084B1A88094BA3FB51
:101A40000213D9080B469B000B445B00D31A9AB2D1
:101A5000024B1A800837BD4680BD00BFBC00002085
:101A600000100140CDCCCCCC80B5ADF5027D00AFEF
:101A70003B1D18603B1D1868FFF70AFC0346002B4E
:101A800017D107F1080318464FF400710B4AFFF70E
:101A900053FC07F108030A480A491A46FEF7B0FD4D
:101AA00007480849FEF7C0FD0346002B01D000F0AF
:101AB000DFF907F50277BD4680BD00BF6A0100204F
:101AC000E40000207001002080B485B000AFF86011
:101AD000B960FA80BB8010E0BB88BA681344FA880A
:101AE000F9680A4412781A70BB880133BB80FB88FE
:101AF0000133FB803B8B013B3B833B8B002BEBD1CA
:101B00001437BD465DF8047B704700BF80B500AF59
:101B1000FFF754FF01200A21FFF768FFFFF716FFC8
:101B200000F090F907480849084A094B00F0B4F959
:101B3000FEF726FE00F0F4F800F008F9002318463E
:101B400080BD00BF9C0400205001002094070020AD
:101B50003801002080B5ADF5027D00AF3B1D186057
:101B60003B1D1868FFF794FB0346002B1ED107F1BD
:101B7000080318464FF40071104AFFF7DDFB0F4BC6
:101B80001B88B3F5007F01D0012312E007F10803A1
:101B90000B480C491A46FEF733FD09480949FEF780
:101BA00043FD0346002B03D0012302E0012300E0A4
:101BB0000023184607F50277BD4680BD6A01002064
:101BC000E40000207001002080B5ADF5387D00AF45
:101BD0003B1D18603B1D1868FFF746FF174BDB687D
:101BE0001846FFF75FFCFFF747FE0023A7F8DE3239
:101BF00018E007F10C0318464FF43471104AFFF750
:101C00009BFB0F4B1B88B3F5347F01D000F030F9FC
:101C100007F10C031846FFF755FEB7F8DE32013323
:101C2000A7F8DE32B7F8DE32B3F5A07FE1D3FFF7D5
:101C30003FFE07F53877BD4680BD00BFE4000020B9
:101C40006A01002080B586B002AF78601E4B00228A
:101C50001A701E4B1B78002B0ED01D4801F0A0F807
:101C600003469BB20133FB81FB8900931848194955
:101C700000220023FFF728FF17481849FFF7F0FC60
:101C800003467B737B7B032B0FD1154BBB60124844
:101C9000B968FFF79DFC10481049FFF7E1FC0346C7
:101CA0007B737B7B032B00D10BE00948FFF752FFCE
:101CB0000346002B05D1054B01221A700448FFF79B
:101CC00083FF1037BD4680BD680100206C010020F5
:101CD000FD0000206804002088040020F40000209B
:101CE0004C2E000880B582B000AF7860094B00220E
:101CF0001A70094B1B78002B08D00848FFF72AFF01
:101D00000346002B02D10548FFF75EFF0837BD46AA
:101D100080BD00BF680100206C0100206804002025
:101D200080B582B000AF0648FFF7B0F9054B7B6085
:101D300005487968FFF74CFC0837BD4680BD00BFF9
:101D40000C0100204C2E00088804002080B584B0CF
:101D500002AF0023FB800023BB804FF434737B80F1
:101D600032480021FEF74AFD31480021FEF746FDCA
:101D700000200A21FFF73AFE00F050FA0346002B3C
:101D800053D02C4800F026FA2B482A492022FEF78F
:101D90000FFE0346002B10D101200A21FFF726FE7B
:101DA0003220FEF7B1FD254B01221A700023FB8083
:101DB0000023BB80FFF760FD37E0204B1B78002B32
:101DC00033D0BB88202200921A481D490022FFF719
:101DD0007BFEBB882033BB80BA887B889A4224D3A1
:101DE0001748FFF76FFDBA887B88D31ABB80BB8882
:101DF000BA8800920F4812491A460023FFF764FE82
:101E0000FB880133FB80FB88B3F5A07F0DD1002058
:101E10000A21FFF7EBFD094B00221A700023FB801B
:101E20000023BB80FFF744FD9AE799E79C0400205C
:101E300050010020C00000200000002068010020A8
:101E4000B404002080B500AF0F20202100F08EF8F0
:101E50000020002100F0D2FA034800F005F9034801
:101E600000F018F980BD00BF2C00002024000020E5
:101E700080B500AF01200A21FFF7B8FD0548FEF745
:101E80002BFD00200A21FFF7B1FD0248FEF724FDDB
:101E9000F0E700BF80841E0080B584B000AFF8601A
:101EA000B9607A603B60F868FEF782FCFB684FF42B
:101EB00080629A81FB68074A1A61B868FEF778FC6D
:101EC000BB684FF400629A81BB68034A1A611037FD
:101ED000BD4680BDE51C0008451C000880B582B0E9
:101EE00000AF786007484021FEF72EFA7868E121BC
:101EF00000F04EFC03484021FEF718FA0837BD46B3
:101F000080BD00BF000C014080B582B000AF78609A
:101F100007484021FEF718FA7868E22100F038FC03
:101F200003484021FEF702FA0837BD4680BD00BFD6
:101F3000000C014080B582B000AFC023BB800323FA
:101F4000BB711023FB713B1D07481946FEF732F9A0
:101F500005484021FEF7EAF903488021FEF7F4F92D
:101F60000837BD4680BD00BF000C014080B582B07F
:101F700000AF02460B46FA71BB7100F007FDFFF798
:101F8000D9FFBB79202B01D92023BB71FB79002B12
:101F900014BF00230123DBB21A46314B5A70304B79
:101FA000BA791A702E4B03229A702D4B0022DA70E8
:101FB00000F078F9FB79184600F006FA284B1B78F8
:101FC0001120194600F09EF8254B1B781220194667
:101FD00000F098F8224B1B781320194600F092F875
:101FE0001F4B1B781420194600F08CF81C4B1B78F3
:101FF0001520194600F086F8194B1B781620194653
:1020000000F080F8164BDA78154B9B78104619468D
:1020100000F0F4F90020082100F074F801203F21BD
:1020200000F070F802203F2100F06CF804204F21EE
:1020300000F068F81C20002100F064F80948FFF760
:102040004DFF0848FFF760FF0720702100F05AF8A5
:1020500000F0A6F8012318460837BD4680BD00BF32
:10206000E00000200030014080B582B000AF786011
:1020700007488021FEF768F90B207968052200F0F7
:1020800067F803488021FEF751F90837BD4680BD47
:10209000000C014080B582B000AF78600A207968FA
:1020A000052200F055F810207968052200F050F85C
:1020B0000837BD4680BD00BF80B584B000AF034681
:1020C000FB710E484021FEF73FF9FB7903F01F0337
:1020D000DBB20B48194600F05BFB0346FB73084874
:1020E000FF2100F055FB0346FB7304484021FEF737
:1020F0001DF9FB7B18461037BD4680BD000C014022
:102100000030014080B582B000AF02460B46FA7144
:10211000BB710D484021FEF717F9FB7903F01F034F
:10212000DBB243F02003DBB20848194600F030FB75
:10213000BB790648194600F02BFB03484021FEF707
:10214000F5F80837BD4680BD000C01400030014065
:1021500080B582B000AF396013460246FA71BB7198
:102160000D484021FEF7F0F8FB7903F01F03DBB2C6
:1021700043F02003DBB20948194600F009FBBB79A4
:10218000064839681A4600F037FB03484021FEF73D
:10219000CDF80837BD4680BD000C0140003001403D
:1021A00080B500AF09488021FEF7CEF80848FFF758
:1021B000ABFE07207021FFF7A5FF00200B21FFF7E2
:1021C000A1FF02488021FEF7B1F880BD000C01405C
:1021D0000030014080B582B000AF78600C484021EB
:1021E000FEF7B2F80B48612100F0D2FA0A4B1B78D7
:1021F000084879687A6800F039FB05484021FEF705
:1022000095F807204021FFF77DFF0837BD4680BDC8
:10221000000C014000300140E000002080B582B099
:1022200000AF00F025F80346FB71FB7903F0400393
:10223000002B01D0012307E000F00AF80346002B31
:1022400014BF00230123DBB218460837BD4680BD0A
:1022500080B582B000AF1720FFF72EFF0346FB7159
:10226000FB7903F00103DBB218460837BD4680BD99
:1022700080B582B000AF09484021FEF765F80848F4
:10228000FF2100F085FA0346FB7104484021FEF768
:102290004DF8FB7918460837BD4680BD000C01405B
:1022A0000030014080B582B000AF00200821FFF768
:1022B00029FF01203F21FFF725FF02200321FFF71F
:1022C00021FF03200321FFF71DFF04200321FFF757
:1022D00019FF05200221FFF715FF06200E21FFF749
:1022E00011FF07200E21FFF70DFF08200021FFF747
:1022F00009FF09200021FFF705FFE7233B70E723D3
:102300007B70E723BB70E723FB70E7233B713B4601
:102310000A2019460522FFF71BFFC2233B70C22388
:102320007B70C223BB70C223FB70C2233B713B4650
:102330000B2019460522FFF70BFF0C20C321FFF7E6
:10234000E1FE0D20C421FFF7DDFE0E20C521FFF7C1
:10235000D9FE0F20C621FFF7D5FEE7233B70E72308
:102360007B70E723BB70E723FB70E7233B713B46A1
:10237000102019460522FFF7EBFE11200021FFF780
:10238000C1FE12200021FFF7BDFE13200021FFF740
:10239000B9FE14200021FFF7B5FE15200021FFF73C
:1023A000B1FE16200021FFF7ADFE17201121FFF727
:1023B000A9FE1C200021FFF7A5FE1D200021FFF72C
:1023C000A1FE0837BD4680BD80B582B000AF034690
:1023D000FB71FB797D2B0CD8074B5B78FA799A421D
:1023E00007D0054BFA795A70FB7905201946FFF79B
:1023F00089FE0837BD4680BDE000002080B584B06E
:1024000000AF02460B46FA71BB710023FB731A4BF7
:10241000FA79DA70184BBA799A70FB79002B04D1EB
:10242000FB7B43F00803FB7306E0FB79022B03D12F
:10243000FB7B43F02003FB73BB79032B04D1FB7BB5
:1024400043F00603FB730EE0BB79022B04D1FB7B48
:1024500043F00403FB7306E0BB79012B03D1FB7B44
:1024600043F00203FB73FB7B06201946FFF74AFE8D
:102470001037BD4680BD00BFE000002080B485B0AD
:1024800000AF78600023FB6002E0FB680133FB6073
:10249000FA687B689A42F8D31437BD465DF8047B2E
:1024A000704700BF80B582B000AF2148FFF7E6FF5C
:1024B00020484FF48051FDF739FF00237B6006E090
:1024C0001D48FF2100F064F97B6801337B607B6865
:1024D000092BF5DD17484FF48051FDF735FF1648FD
:1024E000402100F055F91448002100F051F912483C
:1024F000002100F04DF91048002100F049F90E4884
:10250000002100F045F90C48952100F041F900BF89
:102510000948FF2100F03CF90346012BF8D105489A
:102520004FF48051FDF702FF0837BD4680BD00BF64
:1025300020A10700000C01400038004080B582B0A7
:1025400000AF20484FF48051FDF7FEFE1E484821A1
:1025500000F01EF91C48002100F01AF91A48002169
:1025600000F016F91848012100F012F91648AA21C6
:1025700000F00EF91448872100F00AF91248FF21F3
:1025800000F006F90346FB71FB79FF2BF6D00E48ED
:10259000FF2100F0FDF80C48FF2100F0F9F80A488F
:1025A000FF2100F0F5F80848FF2100F0F1F8054898
:1025B0004FF48051FDF7BAFEFB7918460837BD4647
:1025C00080BD00BF000C01400038004080B582B0E3
:1025D00000AFFF23FB7129484FF48051FDF7B4FE93
:1025E0002748772100F0D4F82548002100F0D0F8E2
:1025F0002348002100F0CCF82148002100F0C8F861
:102600001F48002100F0C4F81D48002100F0C0F868
:1026100000BF1B48FF2100F0BBF80346012BF8D197
:102620001748692100F0B4F81548402100F0B0F8CF
:102630001348002100F0ACF81148002100F0A8F880
:102640000F48002100F0A4F80D48FF2100F0A0F889
:102650000B48FF2100F09CF80948FF2100F098F892
:102660000346FB71FB79002BBAD104484FF480512B
:10267000FDF75CFE0837BD4680BD00BF000C014081
:102680000038004080B586B000AFF860B960FA80CD
:10269000BB8035484FF48051FDF756FE3348512139
:1026A00000F076F8BB681B0EDBB23048194600F02C
:1026B0006FF8BB681B0CDBB22C48194600F068F8B9
:1026C000BB681B0ADBB22948194600F061F8BB68F9
:1026D000DBB22648194600F05BF82448002100F0E0
:1026E00057F800BF2148FF2100F052F80346002BA5
:1026F000F8D100BF1D48FF2100F04AF80346FE2B29
:10270000F8D10023FB8219E01848FF2100F040F8BF
:1027100003467B75FA8AFB889A420CD3FA8AFB88B7
:10272000D21ABB889A4206DAFA8AFB88D31AFA6868
:1027300013447A7D1A70FB8A0133FB82FB8AB3F55E
:10274000007FE1D30948FF2100F022F80748FF216C
:1027500000F01EF804484FF48051FDF7E7FD002318
:1027600018461837BD4680BD000C014000380040B7
:1027700080B500AF302000F085F9FFF793FEFFF73A
:10278000DDFEFFF723FF002000F07CF980BD00BFD5
:1027900080B582B000AF78600B46FB707B681B8809
:1027A0009BB203F04003002B01D100231FE000BFC8
:1027B00078680221FDF708FF0346002BF8D0FB786C
:1027C0009AB27B689A8100BF78688021FDF7FCFE91
:1027D0000346012BF8D000BF78680121FDF7F4FE15
:1027E0000346002BF8D07B689B899BB2DBB218466E
:1027F0000837BD4680BD00BF80B584B000AFF8602B
:10280000B9607A60FB681B889BB203F04003002B21
:1028100000D127E021E000BFF8680221FDF7D4FED7
:102820000346002BF8D0FB6803F10C02BB68591C6F
:10283000B9601B78137000BFF8688021FDF7C4FEF3
:102840000346012BF8D000BFF8680121FDF7BCFE5C
:102850000346002BF8D0FB689B897B685A1E7A6080
:10286000002BD8D11037BD4680BD00BF80B584B0E5
:1028700000AFF860B9607A603B60FB681B889BB270
:1028800003F04003002B00D12DE027E000BFF868E3
:102890000221FDF799FE0346002BF8D0FB6803F1F7
:1028A0000C02BB68591CB9601B78137000BFF86834
:1028B0008021FDF789FE0346012BF8D000BFF868A0
:1028C0000121FDF781FE0346002BF8D07B685A1CDE
:1028D0007A60FA680C321278D2B21A703B685A1ECB
:1028E0003A60002BD2D11037BD4680BD80B500AF15
:1028F0004FF480500121FDF7A5FD08200121FDF7CF
:10290000A1FD01200121FDF79DFD80BD80B584B0B2
:1029100000AF0346FB801B480121FDF723FD01208A
:102920000121FDF71FFD2823BB810323BB73FB8817
:10293000B3F5827F02D11823FB7301E00423FB73FC
:1029400007F10C0310481946FDF734FC1023BB8136
:10295000FB88B3F5827F02D10423FB7301E01823C7
:10296000FB7307F10C0308481946FDF723FC01200F
:102970000121FDF767FD01200121FDF7F3FC103770
:10298000BD4680BD00023000000C014080B586B01D
:1029900000AFFFF7ABFF4FF48270FFF7B7FF0023E4
:1029A000BB8000233B8100237B810023BB814FF44C
:1029B0000073FB8118233B8200237B824FF48273D8
:1029C000FB803B1D07481946FDF778FD05480121AE
:1029D000FDF7B8FD03484FF48071FDF7D3FD1837BC
:1029E000BD4680BD0030014080B500AF4FF480404F
:1029F0000121FDF745FD08200121FDF723FD80BDE4
:102A000080B584B000AF0346FB804FF42043BB8108
:102A10000323BB73FB88B3F5827F02D11823FB73BA
:102A200001E00423FB7307F10C0315481946FDF779
:102A3000C1FB4FF48053BB81FB88B3F5827F02D189
:102A40001023FB7301E00423FB7307F10C030C4814
:102A50001946FDF7AFFB4FF48043BB81FB88B3F50C
:102A6000827F02D10423FB7301E01823FB7307F17B
:102A70000C0303481946FDF79DFB1037BD4680BD8A
:102A8000000C014080B588B000AF0346FB801748BA
:102A90000021FDF757FDFFF7A7FF4FF48270FFF706
:102AA000AFFF0023BB8100233B8200237B820023F6
:102AB000BB824FF40073FB82FB883B8300237B8344
:102AC0004FF48273FB8107F10C0308481946FDF7A8
:102AD000F5FC06480121FDF735FD04484FF48071EF
:102AE000FDF750FD2037BD4680BD00BF00380040D7
:102AF0000649074A074B9A42BEBF51F8040B42F8F9
:102B0000040BF8E70448804704480047642E000897
:102B1000000000209C000020A92B000841010008B3
:102B20001F49204A002301E041F8043B9142FBD3B6
:102B3000FEF7ECFFFEE7FEE7FEE7FEE7FEE7FEE757
:102B4000FEE7FEE7FEE7FEE7FEE7FEE7FEE7FEE75D
:102B5000FEE7FEE7FEE7FEE7FEE7FEE7FEE7FEE74D
:102B6000FEE7FEE7FEE7FEE7FEE7FEE7FEE7FEE73D
:102B7000FEE7FEE7FEE7FEE7FEE7FEE7FEE7FEE72D
:102B8000FEE7FEE7FEE7FEE7FEE7FEE7FEE7FEE71D
:102B9000FEE7FEE7FEE7FEE7FEE7FEE7FEE7FEE70D
:102BA0009C000020AC07002080B500AF154B154AF3
:102BB000126842F001021A60124A124B5968124B15
:102BC0000B4053600F4A0F4B1B6823F0847323F4B0
:102BD000803313600B4B0B4A126822F480221A6078
:102BE000084B084A526822F4FE025A60054B4FF423
:102BF0001F029A6000F00CF8044B4FF000629A60DC
:102C000080BD00BF001002400000FFF800ED00E0B2
:102C100080B500AF00F002F880BD00BF80B483B083
:102C200000AF00237B6000233B603A4B394A1268B7
:102C300042F480321A60374B1B6803F400333B6068
:102C40007B6801337B603B68002B03D17B68B3F565
:102C5000A06FF0D12F4B1B6803F40033002B02D080
:102C600001233B6001E000233B603B68012B4BD11B
:102C7000294B294A126842F010021A60264B264A54
:102C8000126822F003021A60234B234A126842F0B2
:102C900002021A601F4B1F4A52685A601D4B1D4AA0
:102CA00052685A601B4B1B4A526842F480625A6059
:102CB000184B184A526822F47C125A60154B154A78
:102CC000526842F4E8125A60124B124A126842F0FB
:102CD00080721A6000BF0F4B1B6803F00073002B5B
:102CE000F9D00C4B0B4A526822F003025A60094B90
:102CF000084A526842F002025A6000BF054B5B6806
:102D000003F00C03082BF9D10C37BD465DF8047BAA
:102D1000704700BF001002400020024008B5074B7A
:102D2000044613B10021AFF30080054B1868836A95
:102D300003B19847204600F03BF800BF00000000B8
:102D4000542E000870B50E4B0E4D0024ED1AAD1038
:102D50001E46AC4204D056F8242090470134F8E7D0
:102D600000F028F8084D094B0024ED1AAD101E465E
:102D7000AC4204D056F8242090470134F8E770BDE7
:102D8000940000209400002098000020940000206F
:102D900002440346934202D003F8011BFAE770474E
:102DA000034613F8012B002AFBD1181A013870478B
:102DB000FEE70000F8B500BFF8BC08BC9E467047AF
:102DC000F8B500BFF8BC08BC9E467047809A904199
:102DD0008E418F804545454949498E8F9092924F4B
:102DE000994F555559999A9B9C9D9E9F41494F5586
:102DF000A5A5A6A7A8A9AAABAC21AEAFB0B1B2B3A6
:102E0000B4B5B6B7B8B9BABBBCBDBEBFC0C1C2C30A
:102E1000C4C5C6C7C8C9CACBCCCDCECFD0D1D2D3FA
:102E2000D4D5D6D7D8D9DADBDCDDDEDFE0E1E2E3EA
:102E3000E4E5E6E7E8E9EAEBECEDEEEFF0F1F2F3DA
:102E4000F4F5F6F7F8F9FAFBFCFDFEFF20000000B0
:0C2E5000430000003400002000000000DF
:082E5C00E4D2FF7F0100000039
:102E64004920737461727420746F2073656E6420DA
:102E740061206E657720696D616765206E6F7721CB
:102E840000000000E7E7E7E7E70000007E7E7E7EC3
:102E94007E000000000000000000000000000000B0
:102EA400000000000000000000000000000000001E
:102EB40000000000502E0008000000000000000088
:102EC40000000000000000000000000000000000FE
:102ED40000000000000000000000000000000000EE
:102EE40000000000000000000000000000000000DE
:0C2EF4000000000011010008ED000008C3
:0400000508000000EF
:00000001FF
