:020000040800F2
:100000000050002009100008C1100008CD100008A1
:10001000D5100008DD100008E51000080000000001
:10002000000000000000000000000000ED100008CB
:10003000F910000800000000051100081111000867
:1000400063100008651000086710000869100008B8
:100050006B1000086D1000086F1000087110000888
:100060007310000875100008771000087910000858
:100070007B1000087D1000087F1000088110000828
:1000800083100008851000088710000889100008F8
:100090001D1100088D1000088F1000089110000835
:1000A0009310000895100008971000089910000898
:1000B0009B1000089D100008BD0F0008A11000084B
:1000C000A3100008A5100008A7100008A910000838
:1000D000AB100008AD100008AF100008B110000808
:1000E000B3100008B51000082911000810B5054C20
:1000F000237833B9044B13B10448AFF300800123D4
:10010000237010BD5C01002000000000F8360008DC
:1001100008B5064B1BB106480649AFF300800648F8
:10012000036813B1054B03B1984708BD00000000F8
:10013000F8360008600100205C010020000000008B
:10014000154B002B08BF134B9D46A3F5803A0021A9
:100150008B460F461348144A121A03F057FA0F4BF6
:10016000002B00D098470E4B002B00D09847002062
:10017000002104000D000D48002802D00C48AFF308
:10018000008003F01DFA2000290000F037FE03F084
:1001900003FA00BF0000080000500020000000002B
:1001A000000000005C010020E202002000000000CE
:1001B0000000000080B483B000AF7860054A7B681F
:1001C00043F0BF6343F40033D3600C37BD465DF8A2
:1001D000047B704700ED00E080B487B000AF78602A
:1001E00000237B6100233B610F23FB607B68DB788E
:1001F000002B38D0264BDB68DB4303F4E0631B0A9B
:100200007B617B69C3F104033B617B69FA6822FA75
:1002100003F3FB607B685B781A463B6902FA03F3E1
:100220007B617B689B781A46FB6813407A691343AD
:100230007B617B691B017B6116497B681B787A694E
:10024000D2B20B4483F80023124B7A681278520919
:10025000D2B27968097801F01F01012000FA01F19A
:1002600043F822100EE00B4B7A6812785209D2B292
:100270007968097801F01F01012000FA01F12032AC
:1002800043F822101C37BD465DF8047B704700BF61
:1002900000ED00E000E100E080B485B000AF7860E0
:1002A0000023FB60324BFB607B689B79002B4DD0B9
:1002B0002F4B2F4A11687A681268D2430A401A609D
:1002C0002B4B2B4A51687A681268D2430A405A6015
:1002D0007B681B79FA681344FB60FB68FA68116855
:1002E0007A6812680A431A60214B214A91687A6839
:1002F0001268D2430A409A601D4B1D4AD1687A6841
:100300001268D2430A40DA607B685B79102B0ED109
:10031000174B174A91687A6812680A439A60144B1F
:10032000134AD1687A6812680A43DA601BE0104BFE
:10033000FB607B685B79FA681344FB60FB68FA68D2
:1003400011687A6812680A431A600CE07B681B79AE
:10035000FA681344FB60FB68FA6811687A681268EF
:10036000D2430A401A601437BD465DF8047B7047DB
:100370000004014080B483B000AF7860034B7A681A
:100380005A610C37BD465DF8047B7047000401409C
:1003900080B489B000AF786039600023FB6100232E
:1003A0003B610023BB610023FB6000237B610023D2
:1003B000BB603B68DB7803F00F03FB613B68DB78D5
:1003C00003F01003002B04D03B689B78FA691343B9
:1003D000FB613B681B88DBB2002B44D07B681B6849
:1003E0007B610023BB6138E0BB69012202FA03F3A1
:1003F000FB603B681B881A46FB6813403B613A6907
:10040000FB689A4226D1BB699B00FB60FB680F2208
:1004100002FA03F3BB60BB68DB437A6913407B617C
:10042000FB68FA6902FA03F37A6913437B613B685C
:10043000DB78282B05D1BB6901229A407B685A6181
:1004400008E03B68DB78482B04D1BB6901229A4065
:100450007B681A61BB690133BB61BB69072BC3D9D8
:100460007B687A691A603B681B88FF2B46D97B68DA
:100470005B687B610023BB613AE0BB690833012202
:1004800002FA03F3FB603B681B881A46FB681340C3
:100490003B613A69FB689A4227D1BB699B00FB60CC
:1004A000FB680F2202FA03F3BB60BB68DB437A6987
:1004B00013407B61FB68FA6902FA03F37A6913431C
:1004C0007B613B68DB78282B05D1BB6908330122AF
:1004D0009A407B685A613B68DB78482B05D1BB6941
:1004E000083301229A407B681A61BB690133BB6102
:1004F000BB69072BC1D97B687A695A602437BD462E
:100500005DF8047B704700BF80B483B000AF7860B3
:100510007B684FF6FF721A807B6802229A707B68B4
:100520000422DA700C37BD465DF8047B704700BFCB
:1005300080B483B000AF78600B467B807A887B689C
:100540001A610C37BD465DF8047B704780B483B0F8
:1005500000AF78600B467B807A887B685A610C37E5
:10056000BD465DF8047B704780B483B000AF78600F
:10057000034B7A681A600C37BD465DF8047B704700
:10058000D800424280B483B000AF78600B46FB7065
:10059000FB78002B06D0094B084A91697A680A4318
:1005A0009A6106E0054B054A91697A68D2430A4090
:1005B0009A610C37BD465DF8047B7047001002401D
:1005C00080B483B000AF78600B46FB70FB78002BE3
:1005D00006D0094B084AD1697A680A43DA6106E015
:1005E000054B054AD1697A68D2430A40DA610C3773
:1005F000BD465DF8047B70470010024080B485B0B2
:1006000000AF786039600023FB817B681B88FB8129
:100610007A682E4B9A4213D07A682D4B9A420FD0AB
:100620007B68B3F1804F0BD07A682A4B9A4207D08F
:100630007A68294B9A4203D07A68284B9A4208D1AB
:10064000FB8923F07003FB813B685A88FB891343C5
:10065000FB817A68224B9A420CD07A68214B9A42ED
:1006600008D0FB8923F44073FB813B68DA88FB895F
:100670001343FB817B68FA891A803B689A887B6800
:100680009A853B681A887B681A857A680F4B9A426C
:100690000FD07A680E4B9A420BD07A68124B9A426E
:1006A00007D07A68114B9A4203D07A68104B9A426D
:1006B00004D13B681B7A1A467B681A867B68012244
:1006C0009A821437BD465DF8047B7047002C0140C8
:1006D000003401400004004000080040000C0040CD
:1006E0000010004000140040004001400044014060
:1006F0000048014080B485B000AF786039600023C5
:100700007B810023FB810023BB817B681B8C9BB218
:1007100023F001039AB27B681A847B681B8CFB81EF
:100720007B689B88BB817B681B8B7B817B8923F0EB
:1007300070037B817B8923F003037B813B681A88EC
:100740007B8913437B81FB8923F00203FB813B6898
:100750001A89FB891343FB813B685A88FB89134341
:10076000FB817A68244B9A420FD07A68234B9A42D5
:100770000BD07A68224B9A4207D07A68214B9A4272
:1007800003D07A68204B9A4223D1FB8923F00803D7
:10079000FB813B685A89FB891343FB81FB8923F06A
:1007A0000403FB813B689A88FB891343FB81BB8967
:1007B00023F48073BB81BB8923F40073BB813B6846
:1007C0009A89BB891343BB813B68DA89BB89134390
:1007D000BB817B68BA899A807B687A891A833B6877
:1007E000DA887B689A867B68FA891A841437BD4652
:1007F0005DF8047B704700BF002C014000340140CD
:1008000000400140004401400048014080B483B0F2
:1008100000AF78607B684FF6FF729A807B68002299
:100820001A807B680022DA807B6800225A807B680D
:1008300000221A720C37BD465DF8047B704700BF7A
:1008400080B483B000AF78607B6800221A807B6838
:1008500000225A807B6800229A807B680022DA801E
:100860007B6800221A817B6800225A817B68002203
:100870009A817B680022DA810C37BD465DF8047BE3
:10088000704700BF80B483B000AF78600B46FB7048
:10089000FB78002B08D07B681B889BB243F00103D8
:1008A0009AB27B681A8007E07B681B889BB223F0B2
:1008B00001039AB27B681A800C37BD465DF8047B51
:1008C000704700BF80B483B000AF786013460A461B
:1008D0007A807B707B78002B08D07B689B899AB2EA
:1008E0007B8813439AB27B689A8109E07B689B8975
:1008F0009AB27B88DB439BB213409AB27B689A81A1
:100900000C37BD465DF8047B704700BF80B483B0F0
:1009100000AF78600B467B807B88DB439AB27B68B4
:100920001A820C37BD465DF8047B704780B582B0F3
:1009300000AF08200121FFF725FE4FF47053BB8064
:100940004823FB710323BB713B1D03481946FFF786
:100950001FFD0837BD4680BD000C014080B483B048
:1009600000AF78607B6800221A807B6800225A8082
:100970007B6800221A717B6800225A717B68094AE1
:100980009A607B6800229A817B680022DA817B680A
:1009900000221A617B6800225A610C37BD465DF85F
:1009A000047B7047000C014080B584B000AF7860D4
:1009B00039607B689B689B689AB27B689B8913400F
:1009C000FB817B68DB89FA899A4214BF00230123EB
:1009D0007B737B685B7983F00103DBB2002B0DD066
:1009E0007B681B797A7B9A4208D07B6801225A7116
:1009F0007B6800225A807B6800221A807B685B79C2
:100A0000002B3BD07B7B002B07D07B681B889BB2E5
:100A100001339AB27B681A8006E07B681B889BB220
:100A2000013B9AB27B681A807B685B8801339AB27B
:100A30007B685A807B685B88B3F57A7F1ED17B68C0
:100A40001B881BB2002B0BDD7B681B69002B03D0BE
:100A50007B681B69386898477B6801221A710AE035
:100A60007B685B69002B03D07B685B6938689847BB
:100A70007B6800221A717B6800225A711037BD46CC
:100A800080BD00BF80B500AF4FF080500121FFF75F
:100A900097FD10200121FFF775FD20200121FFF7B0
:100AA00071FD4FF48020FFF765FC074B4FF4802267
:100AB0001A60054B08225A71034B01229A710248B1
:100AC000FFF7EAFB80BD00BFF001002080B500AF5A
:100AD0000020FFF749FD4FF400000121FFF770FDF2
:100AE00080BD00BF80B582B000AF094B7B607B68E2
:100AF0009B7A002B03D0074B05221A6002E0054BBE
:100B000001221A6000F018FB0837BD4680BD00BF07
:100B1000B80200208801002080B582B000AF4FF4F9
:100B2000A060FFF747FB14233B7102237B71002376
:100B3000BB710123FB713B1D1846FFF74DFB2A23B8
:100B40003B7101237B713B1D1846FFF745FB0837BE
:100B5000BD4680BD80B582B000AF0346FB71FB7916
:100B6000002B05D006484FF40051FFF7EFFC04E0DE
:100B700003484FF40051FFF7DBFC0837BD4680BD4A
:100B80000010014080B500AF0E4B04221A700D4BCF
:100B900001225A700C4B1B781A460A4B9A700B4B69
:100BA0001B88DAB2074BDA70094B00221A708120D9
:100BB0000449052202F0A4FC012002F0A7FA002358
:100BC000184680BDE8010020CA010020E401002091
:100BD0000000002080B584B000AF0E4B1B68FB60A6
:100BE0000D4B1B68BB600D4B1B687B60FA687B6814
:100BF0001344FB60FB68002B09D0F8680849082201
:100C000000F012F8B8680749042200F00DF8103718
:100C1000BD4680BDE8F7FF1FECF7FF1FF0F7FF1F91
:100C2000060000201600002080B487B000AFF860F6
:100C3000B9601346FB710023FB750023FB7525E0AB
:100C4000FB681B0F092B0AD8FB7D5B00BA681344B5
:100C5000FA68120FD2B23032D2B21A7009E0FB7DBC
:100C60005B00BA681344FA68120FD2B23732D2B2BC
:100C70001A70FB681B01FB60FB7D5B000133BA68E7
:100C8000134400221A70FB7D0133FB75FA7DFB795A
:100C90009A42D5D31C37BD465DF8047B704700BF30
:100CA00080B582B000AF04200121FFF76BFC022366
:100CB000BB801023FB710323BB713B1D0348194606
:100CC000FFF766FB0837BD4680BD00BF0008014046
:100CD00080B582B000AF02460B46FA71BB80FB794B
:100CE000002B0DD0124B1B88BA889A4204D31148AE
:100CF0000221FFF72BFC03E00E480221FFF718FC4E
:100D00000B4B1B8801339AB2094B1A80084B1A8887
:100D1000094BA3FB0213D9080B469B000B445B0055
:100D2000D31A9AB2024B1A800837BD4680BD00BF65
:100D30007801002000080140CDCCCCCC80B485B037
:100D400000AF78607B68FB60FB6801221A70143783
:100D5000BD465DF8047B704780B485B000AF786015
:100D60007B68FB60FB6800221A701437BD465DF893
:100D7000047B704780B485B000AF78607B68FB600F
:100D8000FB681B88092B05D8FB681B8801339AB2C6
:100D9000FB681A801437BD465DF8047B704700BFBE
:100DA00080B485B000AF78607B68FB60FB681B880F
:100DB000002B05D0FB681B88013B9AB2FB681A80A8
:100DC0001437BD465DF8047B704700BF80B483B024
:100DD00000AF0346FB71084B97F907205209F979D8
:100DE00001F01F01012000FA01F143F822100C3735
:100DF000BD465DF8047B704700E100E080B500AFC0
:100E00001B481C491C4A1D4B00F042F8FFF748FFE5
:100E1000FFF78CFD00F0BEF8FFF734FEFFF77CFE15
:100E2000FFF754FE01F0C4FE11481549FFF7BCFD61
:100E300010481349FFF7B8FD0F481249FFF7B4FDFA
:100E40000E481049FFF7B0FD0F4B1B68052B06D16C
:100E50000E4B1B78DBB2002B01D0FFF793FE084B43
:100E60001A78084B1B8810461946FFF731FFDBE75D
:100E7000CC010020B0010020FC01002098010020DE
:100E8000CA010020E40100208801002000000020A9
:100E900080B584B000AFF860B9607A603B60F868F4
:100EA000FFF75CFDFB684FF480529A81FB68114AA2
:100EB0001A61B868FFF752FDBB684FF400529A817F
:100EC000BB680D4A1A617868FFF748FD7B684FF4EC
:100ED00000629A817B68094A1A613868FFF73EFD13
:100EE0003B684FF480629A813B68054A1A6110376B
:100EF000BD4680BD3D0D0008590D0008750D000868
:100F0000A10D000880B500AF08200121FFF73AFBD2
:100F100004200121FFF736FB04200121FFF750FBDD
:100F20001748FFF7F1FA164B1822DA70144B4022DB
:100F30001A80134B02229A7012481149FFF728FABF
:100F40001148FFF763FC104B4FF434721A800E4BBC
:100F50000A229A800D480C49FFF750FB0C48FFF716
:100F60006FFC0B4B3222DA80094B60221A80084B4F
:100F700001225A8005480649FFF7BCFB80BD00BF2F
:100F800034020020000C014018020020000800403C
:100F90002402002080B500AF62B6FFF7B3FF064819
:100FA00001210122FFF78EFC03480121FFF76AFCB3
:100FB0001E20FFF70BFF80BD0008004080B500AF8A
:100FC0000E480121FFF7A2FC0D4B1B7883F00103B3
:100FD000DBB2002B06D00B4B1B88002B02D0094B39
:100FE00000221A80054B9B8E9AB2064B1B889A42B0
:100FF00003D0024B034A12889A8680BD0008004045
:10100000CA010020E40100200649074A074B9A4222
:10101000BEBF51F8040B42F8040BF8E704488047C0
:101020000448004704370008000000205C0100204D
:1010300039110008410100081F49204A002301E03E
:1010400041F8043B9142FBD3FFF7D8FEFEE7FEE7F1
:10105000FEE7FEE7FEE7FEE7FEE7FEE7FEE7FEE768
:10106000FEE7FEE7FEE7FEE7FEE7FEE7FEE7FEE758
:10107000FEE7FEE7FEE7FEE7FEE7FEE7FEE7FEE748
:10108000FEE7FEE7FEE7FEE7FEE7FEE7FEE7FEE738
:10109000FEE7FEE7FEE7FEE7FEE7FEE7FEE7FEE728
:1010A000FEE7FEE7FEE7FEE7FEE7FEE7FEE7FEE718
:1010B000FEE7FEE7FEE7FEE75C010020E20200201B
:1010C00080B400AFBD465DF8047B704780B400AFCC
:1010D000FEE700BF80B400AFFEE700BF80B400AF02
:1010E000FEE700BF80B400AFFEE700BF80B400AFF2
:1010F000BD465DF8047B704780B400AFBD465DF827
:10110000047B704780B400AFBD465DF8047B704738
:1011100080B400AFBD465DF8047B704780B500AF7A
:1011200000F002F980BD00BF80B500AF4FF4802011
:10113000FFF720F980BD00BF80B500AF154B154A01
:10114000126842F001021A60124A124B5968124B9F
:101150000B4053600F4A0F4B1B6823F0847323F43A
:10116000803313600B4B0B4A126822F480221A6002
:10117000084B084A526822F4FE025A60054B4FF4AD
:101180001F029A6000F00CF8044B4FF000629A6066
:1011900080BD00BF001002400000FFF800ED00E03D
:1011A00080B500AF00F002F880BD00BF80B483B00E
:1011B00000AF00237B6000233B603A4B394A126842
:1011C00042F480321A60374B1B6803F400333B60F3
:1011D0007B6801337B603B68002B03D17B68B3F5F0
:1011E000A06FF0D12F4B1B6803F40033002B02D00B
:1011F00001233B6001E000233B603B68012B4BD1A6
:10120000294B294A126842F010021A60264B264ADE
:10121000126822F003021A60234B234A126842F03C
:1012200002021A601F4B1F4A52685A601D4B1D4A2A
:1012300052685A601B4B1B4A526842F480625A60E3
:10124000184B184A526822F47C125A60154B154A02
:10125000526842F4E8125A60124B124A126842F085
:1012600080721A6000BF0F4B1B6803F00073002BE5
:10127000F9D00C4B0B4A526822F003025A60094B1A
:10128000084A526842F002025A6000BF054B5B6890
:1012900003F00C03082BF9D10C37BD465DF8047B35
:1012A000704700BF001002400020024080B584B0AB
:1012B00000AF3B1D0120194602F048F97B79FB7312
:1012C000FB7B002B03D10F4B00221A7002E00D4B69
:1012D00001221A7079790C4BA3FB0123DA0813461B
:1012E0009B0013445B001344CB1ADBB21A46074B36
:1012F0001A8001204FF4405101F0D2FE1037BD4654
:1013000080BD00BFCA010020A38B2EBAE4010020DB
:1013100080B400AF034B01221A70BD465DF8047B18
:10132000704700BF0000002080B58AB000AF0023E6
:101330007B62814B1B689AB2804B1A807F4B1B8863
:101340009BB203F400427E4B1B881340002B01D05C
:1013500001F04EFC794B1B889BB203F48062784B02
:101360001B881340002B06D0734B4FF6FF321A60D8
:10137000744B5B689847714B1B889BB203F4005217
:101380006F4B1B881340002B03D06B4B4DF6FF7245
:101390001A606A4B1B889BB203F48052684B1B880F
:1013A0001340002B06D0644B4EF6FF721A600020EB
:1013B00000F0B4FB614B1B889BB203F40062604BEE
:1013C0001B881340002B18D05F4B1B78DBB2002B1F
:1013D0000CD05E4B1B68052B08D15D4B5C4AD26874
:1013E00042F08002DA6000F0CBFA02E0022000F066
:1013F00095FB514B4FF2FF721A60504B1B889BB20A
:1014000003F400724E4B1B881340002B0AD04A4B4A
:101410004FF6FF521A604F4B1B78DBB20133DAB242
:101420004C4B1A70454B1B889BB203F48072444BA3
:101430001B881340002B7CD03F4B4FF6FF621A6095
:10144000454B1B689BB21BB2002B6CDA434B1B68ED
:101450005A1C424B1A60414B1B68032B66D9404B08
:101460001B689BB203F00803002B5FD13C4B1B6849
:101470009BB21A463B4B1A6000237B6212E07B6AE8
:101480009B0003F1804303F5B8431B689BB21A46E7
:101490007B6A9B0007F128010B4443F8242C7B6AEC
:1014A00001337B627B6A072BE9D92E4B1B6843F023
:1014B00001022C4B1A602A4B2A4A126892B21A6017
:1014C000284B1B6823F00102264B1A60244B254A47
:1014D000126892B21A6000BF174B1B689BB203F4EC
:1014E0008063002BF8D0144B4FF6FF321A600023B4
:1014F0007B6211E07B6A9B0003F1804303F5B843F4
:101500007A6A920007F128010A4452F8242C92B218
:101510001A607B6A01337B627B6A072BEAD90F4B27
:1015200000221A6002E00D4B00221A60072000F032
:10153000F5FA2837BD4680BD445C00403A020020E1
:10154000DC0200205C000020F00000208801002068
:10155000000C01407A010020485C00407C01002022
:10156000405C00408001002080B500AFFFF732FBF7
:10157000054B1B6800229A7200F0DAF901F0A6FF11
:10158000024B00221A6080BDD80200208801002092
:1015900080B500AF2A4B1B6800229A72284B1B684B
:1015A0000022DA72264B1B68264AD2795A72002032
:1015B00001F00AFD00204FF4007101F017FD00203A
:1015C000102101F037FD0020182101F093FE0020CA
:1015D000582101F06FFE002001F0E8FD1A4B93F84E
:1015E0002C300020194601F0F9FE002001F0B6FD74
:1015F00001204FF4C06101F0F9FC01204FF480712B
:1016000001F058FE01204FF4A07101F073FE01209B
:10161000402101F0C7FE0120022101F0DFFE012080
:101620004FF4405101F03CFD0120202101F002FD6A
:10163000002001F079FA054B01221A6080BD00BF3D
:10164000D80200204C3600085C00002088010020F1
:1016500080B483B000AF074B7B607B689B7A002B24
:1016600002D0054B05221A600C37BD465DF8047B9D
:10167000704700BFB80200208801002080B400AF8E
:10168000034B04221A60BD465DF8047B704700BF1F
:101690008801002080B400AFBD465DF8047B704730
:1016A00080B400AFBD465DF8047B704780B584B060
:1016B00000AF0346FB710023FB60FB79062B1CD1B6
:1016C000234B1B681B7803F07F03012B15D1204BA4
:1016D0001B685B79002B10D11D4B1B689B78222B5C
:1016E00002D11C4BFB6007E0194B1B689B78212B38
:1016F00002D1194BFB6016E015E0154B1B681B78F7
:1017000003F07F03212B0ED1FB79032B02D0092B91
:1017100003D008E0114BFB6005E0114BFB60114B5F
:1017200009221A7000BFFB68002B01D102230BE0D5
:10173000074B1B68FA689A61054B1B6800225A82A6
:10174000FB6800209847002318461037BD4680BD2F
:10175000D8020020591800087D180008FD1800085C
:10176000691700088401002080B483B000AF0346ED
:10177000FB80FB88002B05D1064B1B6840221A8298
:10178000002300E0044B18460C37BD465DF8047B8F
:10179000704700BFD80200204002002080B582B010
:1017A00000AF0346FB71094B1B681B7803F07F03F6
:1017B000212B06D1FB790B2B03D100F089F80346CE
:1017C00000E0022318460837BD4680BDD80200203D
:1017D00080B582B000AF0346FB80FB881846044901
:1017E00000F004FD034618460837BD4680BD00BF23
:1017F000B000002080B582B000AF0346FB80FB88BC
:101800001846044900F0F2FC034618460837BD4666
:1018100080BD00BFB800002080B584B000AF034693
:10182000FB800B4B1B68DB78FB73FB7B042B01D924
:10183000002309E0FB7BDA00064B1344FA881046CC
:10184000194600F0D3FC034618461037BD4680BD4C
:10185000D8020020D000002080B582B000AF03463F
:10186000FB80FB881846044900F0C0FC034618467C
:101870000837BD4680BD00BFC000002080B582B0E3
:1018800000AF0346FB80FB881846044900F0AEFC1D
:10189000034618460837BD4680BD00BFC80000207B
:1018A00080B483B000AF02460B46FA71BB71BB79BE
:1018B000002B01D0022305E0FB79002B01D002238D
:1018C00000E0002318460C37BD465DF8047B7047E6
:1018D00080B483B000AF074B1B68DB78FB71FA79EB
:1018E000054B1A60002318460C37BD465DF8047B93
:1018F000704700BFD80200203C02002080B483B0B3
:1019000000AF0346FB80FB88002B05D1064B1B680C
:1019100001221A82002300E0044B18460C37BD4612
:101920005DF8047B704700BFD80200203C02002015
:1019300080B582B000AF0120FFF70CF90123FB80D6
:101940000C4BFA881A600C4B00221A80094B0A4A89
:1019500012881A60094B00221A60074B4FF4E052BC
:101960001A80044B044A12881A600023184608376C
:10197000BD4680BD405C0040DC020020445C00406D
:1019800080B485B000AF0023FB600023BB60002360
:101990003B60514B1B68FB800023FB600FE0FB6842
:1019A0009B0003F1804303F5B8431B689BB21946C3
:1019B0004A4BFA6843F82210FB680133FB60FB686E
:1019C000072BECD9FB8843F48063FB80424BFA88F9
:1019D0001A60FB8843F00103FB803F4BFA881A60D2
:1019E000FB8823F00103FB803B4BFA881A6000BFA1
:1019F0003B4B1B689BB203F48063002BF8D0384B41
:101A00004FF6FF321A600023FB600EE0FB689B007C
:101A100003F1804303F5B843304AF96852F82120B6
:101A200092B21A60FB680133FB60FB68072BEDD9AB
:101A3000FB8843F00803FB80274BFA881A60264B8B
:101A40001B68FB80FB8843F00403FB80224BFA8871
:101A50001A60244B1B683B60224B1B68BB60BB6851
:101A600023F00303BB60BB6843F00103BB601D4B65
:101A7000BA681A601C4B1C4A126942F004021A61CF
:101A8000174B1B689BB203F48053002B07D130BF68
:101A9000154B154A126922F004021A6116E0104B28
:101AA0004EF6FF721A600C4B1B68FB80FB8823F01C
:101AB0000803FB80084BFA881A600A4B3A681A60E0
:101AC000094B094A126922F004021A611437BD4613
:101AD0005DF8047B704700BF405C00408802002036
:101AE000445C00400070004000ED00E080B582B032
:101AF00000AF094B1B68FB80FB8823F00403FB80CD
:101B0000054BFA881A60FEF7EDFF034B4FF43F4296
:101B10001A600837BD4680BD405C004080B584B087
:101B200000AF0346FB71434B424AD26822F0800269
:101B3000DA60FB79072B02D03F4BFA791A703E4BE3
:101B40001B78DBB2052B6DD801A252F823F000BF41
:101B5000691B0008851B0008971B0008A51B0008CF
:101B6000C71B0008E91B0008344B1B68002B05D17C
:101B7000FFF7BCFF304B06221A7057E02E4B0522B0
:101B80001A7053E0FFF7B2FF2B4B04221A702B4B55
:101B900001221A604AE0284B02225A70264B032287
:101BA0001A7043E0244B5B78DBB2013BDAB2224B84
:101BB0005A70214B5B78DBB2002B03D11E4B042201
:101BC0001A7033E032E01E4B1B68FB81FB8943F047
:101BD0001003FB811A4BFA891A60174B05221A7001
:101BE000154B0A225A7021E0134B5B78DBB2013BA4
:101BF000DAB2114B5A70104B5B78DBB2002B10D16C
:101C00000F4B1B68FB81FB8923F01003FB810C4BFE
:101C1000FA891A60084B06221A70084B00221A60D3
:101C200004E003E0044B06221A7000BF1037BD46E3
:101C300080BD00BF000C0140840200208C01002008
:101C4000405C004080B582B000AF0346FB80FB885B
:101C5000002B05D1084B1B6801221A82002306E0E5
:101C6000064B1B681B689847034B1B680A331846D2
:101C70000837BD4680BD00BFD8020020D402002036
:101C800080B500AF0F4B1B68DA780F4B5B789A4238
:101C900015D80C4B1B689B78002B10D1094B1B6887
:101CA0009B88002B0BD1074B1B68064A1268D27821
:101CB0009A72064B1B685B689847002300E002237A
:101CC000184680BDD802002058000020D402002011
:101CD00080B582B000AF0346FB80FB88002B05D1A6
:101CE000084B1B6801221A82002306E0064B1B6882
:101CF0009B689847034B1B680C3318460837BD4652
:101D000080BD00BFD8020020D402002080B582B080
:101D100000AF1E4B1B689B691D4A126851791C4A13
:101D20001268D2780846114698470346FB71184B53
:101D30001B689B7A002B23D0FB79002B09D1144B15
:101D40001B681B79002B04D1114B1B689B78002B5F
:101D500001D0022315E0FB79002B11D10D4B1B683C
:101D6000DB6898470A4B1B68094A12685279DA7295
:101D7000074B1B68064A1268D2781A73002300E0EA
:101D8000022318460837BD4680BD00BFB0020020C0
:101D9000D8020020D402002080B584B000AF0346F2
:101DA000FB80FB88002B05D1464B1B6802221A8260
:101DB000002383E0444B00221A80424B1B681B78AF
:101DC00003F07F03002B2CD13E4B1B685B7AFB7327
:101DD000FB7B03F02003002B07D03B4B1B7843F029
:101DE0000203DAB2384B1A7006E0374B1B7823F047
:101DF0000203DAB2344B1A70FB7B03F04003002B72
:101E000007D0314B1B7843F00103DAB22E4B1A7026
:101E10004FE02D4B1B7823F00103DAB22A4B1A70E6
:101E200047E0284B1B681B7803F07F03012B01D18F
:101E3000254B43E0234B1B681B7803F07F03022BE9
:101E400035D1204B1B685B79BB73BB7B03F00F0361
:101E50007B73BB7B5BB2002B13DA7B7B9B0003F1B4
:101E6000804303F5B8431B689BB203F03003102B8B
:101E70001CD1154B1B7843F00103DAB2124B1A70D8
:101E800017E07B7B9B0003F1804303F5B8431B689D
:101E90009BB203F44053B3F5805F07D10A4B1B7824
:101EA00043F00103DAB2084B1A7002E001E00023AC
:101EB00004E0064B1B681B699847034B1846103714
:101EC000BD4680BDD8020020A8020020D402002018
:101ED00090B587B000AF6F4B1B681B7803F07F0392
:101EE0003B613B69002B0AD16A4B1B68694A126847
:101EF000527A22F02002D2B25A720023C6E03B6925
:101F0000022B40F0C280634B1B685B88002B04D11E
:101F1000604B1B681B79002B01D00223B6E05E4B9F
:101F2000FB605C4B1B685B79BB60BB6823F0800384
:101F30007B607B683B60574B1B685B79DBB25BB2B5
:101F4000002B0BDA3B689B0003F1804303F5B84399
:101F50001B689BB203F030037B610AE03B689B0087
:101F600003F1804303F5B8431B689BB203F440536D
:101F70007B61FB681B781A467B689A4207D97B69AC
:101F8000002B04D0434B1B689B7A002B01D102230A
:101F90007CE0BB6803F08003002B17D03B689B00FC
:101FA00003F1804303F5B8431B689BB203F0300391
:101FB000102B64D13B68DBB2184601F04DF93B6849
:101FC000DBB21846302101F035F858E03B689B0041
:101FD00003F1804303F5B8431B689BB203F44053FD
:101FE000B3F5805F4BD13B68002B26D13B68DAB25A
:101FF0002A4B93F82C301046194601F0EFF93B6854
:102000009B0003F1804303F5B8431B689BB223F4A4
:10201000804323F070039CB284F480539CB284F418
:1020200000539CB23B689B0003F1804303F5B84327
:102030001B4A224392B21A6021E03B68DBB2184689
:1020400001F0DCF83B689B0003F1804303F5B843E3
:102050001B689BB223F4804323F070039CB284F48A
:1020600080539CB284F400539CB23B689B0003F104
:10207000804303F5B8430A4A224392B21A60094BDF
:102080001B685B699847002300E0022318461C3751
:10209000BD4690BDD8020020580000205C00002002
:1020A0008080FFFFD402002090B585B000AF404B88
:1020B0001B685B79BB60BB6823F080037B607B6837
:1020C0003B603B4B1B685B79DBB25BB2002B0BDAEE
:1020D0003B689B0003F1804303F5B8431B689BB248
:1020E00003F03003FB600AE03B689B0003F1804390
:1020F00003F5B8431B689BB203F44053FB602D4BC0
:102100001B781A463B689A420CD9294B1B685B889E
:10211000002B07D1FB68002B04D0254B1B689B7A52
:10212000002B01D102233EE0BB6803F08003002BAB
:102130001AD03B689B0003F1804303F5B8431B684A
:102140009BB223F4E04323F040039CB284F01003DD
:102150009CB23B689B0003F1804303F5B843164AE9
:10216000224392B21A6019E03B689B0003F180435E
:1021700003F5B8431B689BB223F4804323F070033C
:102180009CB284F480539CB23B689B0003F1804373
:1021900003F5B843084A224392B21A60074B1B6802
:1021A0009B699847002318461437BD4690BD00BF71
:1021B000D8020020580000208080FFFFD4020020B9
:1021C00080B500AF074B1B68064A1268527A42F08E
:1021D0002002D2B25A72044B1B68DB699847002375
:1021E000184680BDD8020020D402002080B485B0FB
:1021F00000AF03463960FB800D4B1B685B8AFB60B8
:10220000FB88002B0AD10A4B1B683A689188FA6850
:1022100092B28A1A92B21A82002303E03B681A68CB
:10222000FB68134418461437BD465DF8047B7047BD
:10223000D802002080B584B000AF3A4B1B68103341
:10224000BB60BB681B887B60BB689B68002B2ED083
:102250007B68002B2BD0BB689B88FB60FA687B688F
:102260009A4201D97B68FB60BB689B68FA6892B2AE
:10227000104698473860BB681A88FB689BB2D31A2F
:102280009AB2BB681A80BB685A88FB689BB2134439
:102290009AB2BB685A80002001F068F803461A46DB
:1022A000FB689BB2386811461A4600F05FFEBB68B7
:1022B0001B88002B0AD01C4B4FF440521A80002080
:1022C000002101F06FF8194B30221A80BB681A8880
:1022D000BB689B889A4204D3124B1B6803221A7274
:1022E0001CE0BB681B88002B04D00E4B1B6805222A
:1022F0001A7213E0BB681B88002B0FD1094B1B68B7
:1023000006221A720A4B1B689BB21A46094B1344E9
:102310005B0000221A60054B30221A801037BD4640
:1023200080BD00BFD8020020DE020020E0020020B5
:10233000505C00400230002080B586B000AF3B4BBF
:102340001B681033FB60FB681B88BB60374B1B6846
:102350001B7A7B61BB68002B1ED17B69042B1BD1D0
:10236000334B1B78002B11D0324B1B689BB21A46A3
:10237000314B13445B0000221A60304B30221A802C
:1023800004237B612A4B00221A7046E007237B61FD
:102390002A4B10221A8040E0FB689B883B61BA6898
:1023A0003B699A4201D8042300E002237B613A6929
:1023B000BB689A4201D9BB683B61FB689B683A697C
:1023C00092B2104698477860002000F0B3FF0346B1
:1023D0001A463B699BB2786811461A4600F08CFD9C
:1023E0003B699BB20020194600F0DCFFFB681A88AD
:1023F0003B699BB2D31A9AB2FB681A80FB685A8871
:102400003B699BB213449AB2FB685A800B4B302253
:102410001A800B4B4FF440521A80044B1B687A69A8
:10242000D2B21A721837BD4680BD00BFD802002054
:1024300090010020505C004002300020E0020020AB
:10244000DE02002080B584B000AF0223FB735D4B39
:102450001B685B787B605B4B1B681B7803F07F031A
:10246000002B57D17B68092B04D1FFF709FC0346E9
:10247000FB7377E07B68052B1BD1524B1B68DB7825
:10248000DBB25BB2002B0EDB4E4B1B689B78002B44
:1024900009D14C4B1B689B88002B04D1494B1B680E
:1024A0009B7A002B02D00823BB6081E00023FB73E2
:1024B00058E07B68032B11D1424B1B68DB78012B62
:1024C00009D1404B1B689B88002B04D1FFF778FE95
:1024D0000346FB7346E00223FB7343E07B68012B5A
:1024E00040D1384B1B68DB78012B10D1354B1B6872
:1024F0009B88002B0BD1334B1B685B7A03F02003C6
:10250000002B04D0FFF7E4FC0346FB732AE0022310
:10251000FB7327E02B4B1B681B7803F07F03012B19
:1025200007D17B680B2B1DD1FFF7F0FB0346FB7334
:1025300018E0244B1B681B7803F07F03022B0FD19C
:102540007B68012B04D1FFF7C3FC0346FB7309E052
:102550007B68032B06D1FFF7A7FD0346FB7301E061
:102560000223FB73FB7B002B0ED0174B1B685B69B0
:102570007A68D2B2104698470346FB73FB7B032B65
:1025800002D10923BB6013E0FB7B002B02D00823A0
:10259000BB600DE00623BB600C4B1B689BB21A4668
:1025A0000B4B13445B0000221A600A4B30221A8046
:1025B000044B1B68BA68D2B21A7200BF1037BD460E
:1025C00080BD00BFD8020020B0020020505C004057
:1025D00002300020E002002080B58AB000AF934BAB
:1025E0001B685B78BB6100237B6200237B61BB6956
:1025F000062B23D18D4B1B681B7803F07F03002B28
:102600001BD18A4B1B689B78FB74FB7C012B04D18C
:10261000874B1B68DB697B620FE0FB7C022B04D1DC
:10262000834B1B681B6A7B6207E0FB7C032B04D196
:102630007F4B1B685B6A7B62B6E0B5E0BB69002B31
:1026400079D17A4B1B685B88002B74D1774B1B6860
:10265000DB88022B6FD1754B1B681B79002B6AD16D
:10266000724B1B681B7803F07F03002B07D16F4B65
:102670001B689B88002B02D16E4B7B625AE06B4B30
:102680001B681B7803F07F03012B13D1684B1B6879
:102690009B69664A126852791046002198470346A2
:1026A000002B47D1614B1B689B7A002B42D0614BBA
:1026B0007B6279E05D4B1B681B7803F07F03022B84
:1026C00038D15A4B1B685B7903F00F03FB60574B03
:1026D0001B685B7903F07003BB60544B1B685B792C
:1026E000DBB25BB2002B0BDAFB689B0003F180438B
:1026F00003F5B8431B689BB203F03003FB610AE0AB
:10270000FB689B0003F1804303F5B8431B689BB251
:1027100003F44053FB61484B1B781A46FB689A420E
:1027200008D9BB68002B05D1FB69002B02D0414BB7
:102730007B6239E038E0BB69082B09D13B4B1B6851
:102740001B7803F07F03002B2ED13C4B7B622BE0E8
:10275000BB690A2B28D1354B1B681B7803F07F031C
:10276000012B21D1314B1B689B7A002B1CD02F4BA6
:102770001B685B88002B17D12C4B1B681B79002B27
:1027800012D12A4B1B68DB88012B0DD1284B1B680B
:102790009B69264A126852791046002198470346E1
:1027A000002B01D1264B7B627B6A002B0FD01F4B85
:1027B0001B687A6992B25A821C4B1B687A6A9A61CA
:1027C0007B6A00209847002387F8233013E0184BDA
:1027D0001B681B69154A12685278104698470346D1
:1027E00087F8233097F82330032B04D10F4B1B6855
:1027F00009221A7277E00D4B1B681A8A4FF6FF7395
:102800009A4204D1094B1B6809221A726BE097F8AF
:102810002330022B04D0054B1B681B8A002B11D1DF
:10282000024B1B6808221A725DE000BFD80200202C
:10283000B0020020991D000858000020451C000827
:10284000D11C0008294B1B681B78DBB25BB2002B44
:1028500040DA264B1B68DB887B60244B1B681B8A95
:102860001A467B689A4205D9204B1B687A6892B257
:102870001A8225E01D4B1B681A8A1C4B1B68DB88DB
:102880009A421DD2194B1B681A8A194B1B6893F880
:102890002C309A4203D2174B00221A7010E0134BCF
:1028A0001B681B8A124A126892F82C2093FBF2F1E3
:1028B00002FB01F29B1A002B02D10E4B00221A7070
:1028C0000A4B1B680A4A126892F82C209A82FFF77A
:1028D00033FD07E0054B1B6803221A72064B4FF4C9
:1028E00040521A8000BF2837BD4680BDD802002064
:1028F000B002002090010020DE02002090B583B0DD
:1029000000AF0123FB80304B1B689BB21A462F4B54
:1029100013445B001B689BB25B0003F1804303F52B
:10292000C0433B602A4B1B681B7A092B37D0284BCE
:102930001A683B68591C39601B781370244B1A685D
:102940003B68591C39601B7853703A68FB885B0000
:1029500013443B601E4B1C683B689A1C3A601B8802
:10296000184600F09BFD034663803A68FB885B00D5
:1029700013443B60164B1C683B689A1C3A601B88EA
:10298000184600F08BFD0346A3803A68FB885B0085
:1029900013443B600E4B1B683A681288DA800C4B7C
:1029A0001B6801221A720A4B1B68DB88002B02D1BC
:1029B000FFF748FD01E0FFF70FFE00F08DF803463A
:1029C00018460C37BD4690BD505C004004300020D6
:1029D000D802002080B582B000AF1F4B1B681B7A65
:1029E0007B607B68022B02D07B68042B06D1FFF74B
:1029F000A3FC194B1B681B7A7B6021E07B68062BCC
:102A00001CD1154B1B685B78052B10D1124B1B6832
:102A10001B7803F07F03002B09D10F4B1B68DB7879
:102A2000184600F081F80D4B1B681B6A98470C4B49
:102A30001B689B68984708237B6001E008237B6044
:102A4000054B1B687A68D2B21A7200F045F803464B
:102A500018460837BD4680BDD8020020D4020020A9
:102A6000B002002080B582B000AF194B1B681B7A02
:102A70007B607B68022B02D07B68042B02D1082389
:102A80007B6018E07B68032B02D07B68052B06D1A6
:102A9000FFF7D0FB0E4B1B681B7A7B600BE07B685B
:102AA000072B06D10B4B1B68DB68984708237B601C
:102AB00001E008237B60064B1B687A68D2B21A7269
:102AC00000F00AF8034618460837BD4680BD00BF2F
:102AD000D8020020B002002080B500AF0E4B93F862
:102AE0002C300020194600F079FC0C4B1B681B7A37
:102AF000082B06D10A4B4FF480521A80094B102242
:102B00001A80064B1B681B7A092B14BF0023012374
:102B1000DBB2184680BD00BF5C000020D802002058
:102B2000DE020020E002002080B485B000AF034642
:102B3000FB711A4B1B78BB600023FB601EE0FB6837
:102B4000DBB29B0003F1804303F5B843FA68D2B2CD
:102B5000920002F1804202F5B842126892B2114628
:102B600040F60F720A4042F4004242F08002F968D7
:102B7000C9B20A431A60FB680133FB60FA68BB689C
:102B80009A42DCD3064BFA7962F07F02D2B21A6025
:102B90001437BD465DF8047B704700BF5800002025
:102BA0004C5C004080B400AFBD465DF8047B7047CC
:102BB00080B500AF084B094A1A60074B1B68022218
:102BC0001A72074B074A1A60074B084A1A60044BEF
:102BD0001B681B68984780BDD8020020B8020020FF
:102BE000B00200205C000020D40200208C000020F5
:102BF00090B583B000AF0023FB8065E1854B1B8857
:102C00009BB2DBB203F00F03DAB2834B1A70824B34
:102C10001B78002B40F00A81804B1B689AB2804BD6
:102C20001A807F4B1B889BB203F030039AB27D4B16
:102C30001A807B4B1B889BB203F440539AB2784BAB
:102C40001A80764B1B689BB24BF6BF741C4084F411
:102C5000005484F02004714AA1B2734B0B439BB221
:102C600013606C4B1B889BB203F01003002B3FD109
:102C70006A4A6A4B1B689BB2194648F60F730B40B1
:102C80001360FFF7A7FE654B1B689BB24BF6BF7442
:102C90001C40634B1B889BB203F480539BB2002BF8
:102CA00001D084F480545E4B1B889BB203F4005324
:102CB0009BB2002B01D084F400545A4B1B889BB26A
:102CC00003F010039BB2002B01D084F01004554B8D
:102CD0001B889BB203F020039BB2002B01D084F031
:102CE00020044E4AA1B2504B0B439BB21360F6E056
:102CF0004A4B1B689BB2FB80FB889BB203F40063CA
:102D0000002B3FD0454A454B1B689BB2194640F605
:102D10008F730B401360FFF7F1FD404B1B689BB2B4
:102D20004BF6BF741C403E4B1B889BB203F4805390
:102D30009BB2002B01D084F48054394B1B889BB28A
:102D400003F400539BB2002B01D084F40054354BA4
:102D50001B889BB203F010039BB2002B01D084F0C0
:102D60001004304B1B889BB203F020039BB2002B56
:102D700001D084F02004294AA1B22B4B0B439BB213
:102D80001360ACE0FB889BB29BB21BB2002B80F2BD
:102D90009B80224A214B1B689BB2194640F68F73D9
:102DA0000B401360FFF75EFE1C4B1B689BB24BF69B
:102DB000BF741C401A4B1B889BB203F480539BB218
:102DC000002B01D084F48054154B1B889BB203F474
:102DD00000539BB2002B01D084F40054114B1B888C
:102DE0009BB203F010039BB2002B01D084F01004BF
:102DF0000C4B1B889BB203F020039BB2002B01D02D
:102E000084F02004054AA1B2074B0B439BB2136028
:102E100065E000BF3A020020B4020020005C0040E0
:102E2000DE020020E00200208080FFFF2D4B1B7897
:102E30009B0003F1804303F5B8431B689BB2FB8002
:102E4000FB889BB29BB21BB2002B1BDA254B1B7875
:102E50009B0003F1804303F5B843224A12789200A5
:102E600002F1804202F5B842126892B2114640F671
:102E70008F720A401A601B4B1B785A1E1A4B53F86C
:102E800022309847FB889BB203F08003002B1BD0B5
:102E9000144B1B789B0003F1804303F5B843114AA0
:102EA0001278920002F1804202F5B842126892B2A2
:102EB000114648F60F720A401A600A4B1B785A1ED8
:102EC0000A4B53F822309847094B1B689BB2094ABA
:102ED000194611809BB21BB2002BFFF68FAE0C3748
:102EE000BD4690BDB40200203C0000202000002020
:102EF000445C00403A02002080B489B000AF7860A2
:102F000013460A467A803B803B8801335B107B6125
:102F10007B8803F1005303F540535B00BB617B6981
:102F2000FB611BE07B681B783B617B6801337B6046
:102F30007B681B781B021A463B691343FB60BB6925
:102F40009A1CBA61FA6892B21A80BB690233BB61FB
:102F50007B6801337B60FB69013BFB61FB69002BF4
:102F6000E0D12437BD465DF8047B704780B487B05C
:102F700000AF786013460A467A803B803B88013375
:102F80005B10FB607B8803F1005303F540535B004B
:102F90003B61FB687B610EE07B685A1C7A603A6992
:102FA000111D3961126892B21A807B6801337B600F
:102FB0007B69013B7B617B69002BEDD11C37BD46F2
:102FC0005DF8047B704700BF80B483B000AF034658
:102FD000FB80054AF9884FF6F8730B4013600C37F5
:102FE000BD465DF8047B7047505C004080B483B000
:102FF00000AF02460B46FA71BB80FB799B0003F1E0
:10300000804303F5B843FA79920002F1804202F559
:10301000B842126892B222F4EC4222F0700291B2ED
:10302000BA880A4392B292B21A600C37BD465DF874
:10303000047B704790B482B000AF02460B46FA7131
:10304000BB80FB799B0003F1804303F5B8431B6809
:103050009BB223F4E04323F040039CB2BB8803F00F
:1030600010039BB2002B02D084F010039CB2BB88EB
:1030700003F020039BB2002B02D084F020039CB20B
:10308000FB799B0003F1804303F5B843034A2243D5
:1030900092B21A600837BD4690BC70478080FFFF2F
:1030A00090B482B000AF02460B46FA71BB80FB7948
:1030B0009B0003F1804303F5B8431B689BB223F4E4
:1030C000804323F070039CB2BB8803F480539BB20F
:1030D000002B02D084F480539CB2BB8803F40053CD
:1030E0009BB2002B02D084F400539CB2FB799B006E
:1030F00003F1804303F5B843034A224392B21A60B6
:103100000837BD4690BC70478080FFFF90B482B006
:1031100000AF0346FB71FB799B0003F1804303F58D
:10312000B8431B689BB223F4E04323F040039CB2F6
:1031300084F010039CB284F020039CB2FB799B00C6
:1031400003F1804303F5B843034A224392B21A6065
:103150000837BD4690BC70478080FFFF90B482B0B6
:1031600000AF0346FB71FB799B0003F1804303F53D
:10317000B8431B689BB223F4804323F070039CB2D6
:1031800084F480539CB284F400539CB2FB799B007E
:1031900003F1804303F5B843034A224392B21A6015
:1031A0000837BD4690BC70478080FFFF80B483B075
:1031B00000AF0346FB71FB799B0003F1804202F5EF
:1031C000B842FB799B0003F1804303F5B8431B68C9
:1031D0009BB223F4F8731B051B0D9BB243F07F4396
:1031E00043F47F0343F4004343F080039BB29BB25C
:1031F00013600C37BD465DF8047B704780B483B024
:1032000000AF0346FB71FB799B0003F1804303F59C
:10321000B8431B689BB203F48043002B16D0FB79A4
:103220009B0003F1804303F5B843FA79920002F161
:10323000804202F5B842126892B2114640F60F720F
:103240000A4042F4404242F080021A600C37BD4608
:103250005DF8047B704700BF80B483B000AF0346C5
:10326000FB71FB799B0003F1804303F5B8431B68B6
:103270009BB203F04003002B16D0FB799B0003F1B7
:10328000804303F5B843FA79920002F1804202F5D7
:10329000B842126892B2114640F60F720A4042F4E8
:1032A000004242F0C0021A600C37BD465DF8047B54
:1032B000704700BF80B483B000AF02460B46FA717E
:1032C000BB800B4B1B689BB21A46FB79DB00134497
:1032D00003F1005303F540535B00BA88520892B2E1
:1032E00052001A600C37BD465DF8047B704700BF82
:1032F000505C004080B483B000AF02460B46FA71C8
:10330000BB800A4B1B689BB21A46FB79DB001A4450
:10331000074B13445B00BA88520892B252001A60FD
:103320000C37BD465DF8047B704700BF505C004021
:103330000430002080B483B000AF0346FB710A4B19
:103340001B689BB21A46FB79DB00134403F1005360
:1033500003F540535B001B689BB218460C37BD4613
:103360005DF8047B704700BF505C004080B483B0C0
:1033700000AF0346FB71094B1B689BB21A46FB79F1
:10338000DB001A44064B13445B001B689BB21846D3
:103390000C37BD465DF8047B704700BF505C0040B1
:1033A0000430002080B483B000AF02460B46FA71AF
:1033B000BB80084B1B689BB21A46FB79DB001A44A2
:1033C000054B13445B00BA881A600C37BD465DF8A4
:1033D000047B7047505C00400230002080B485B010
:1033E00000AF02460B46FA71BB801B4B1B689BB2B9
:1033F0001A46FB79DB001A44184B13445B00BB6090
:10340000BB883E2B12D9BB885B09FB81BB8803F0CC
:103410001F03002B02D1FB89013BFB81FB899B022F
:1034200043F400431A46BB681A600FE0BB885B0890
:10343000FB81BB8803F00103002B02D0FB89013321
:10344000FB81FB899B021A46BB681A601437BD4694
:103450005DF8047B704700BF505C004006300020E0
:1034600080B483B000AF0346FB710A4B1B689BB26C
:103470001A46FB79DB001A44074B13445B001B68B8
:103480009BB2C3F309039BB218460C37BD465DF8E7
:10349000047B7047505C00400630002080B485B04B
:1034A00000AF0346FB80FB88FB73FB881B0A9BB2C3
:1034B0009AB2FB7B1B029BB213439BB2BB81BB89BD
:1034C00018461437BD465DF8047B704780B400AFE2
:1034D000084B00221A60084B4FF43F421A80074BFA
:1034E000054A12881A6000231846BD465DF8047B21
:1034F000704700BF445C0040DC020020405C00409C
:1035000080B584B000AF0346B9607A60FB73FB7B83
:1035100003F07F03DBB21846FFF70CFF03461A46A1
:103520007B689BB2B86811461A46FFF7E5FCFB7B47
:1035300003F07F03DAB27B689BB210461946FFF7AF
:1035400031FF002318461037BD4680BD80B584B0DA
:1035500000AF03463960FB710023FB60FB7903F089
:103560007F03DBB21846FFF77BFF0346FB60FB7966
:1035700003F07F03DBB21846FFF7F8FE03461A4656
:10358000FB689BB2386811461A46FFF7EFFCFB68F0
:1035900018461037BD4680BD08B5074B044613B129
:1035A0000021AFF30080054B1868836A03B1984788
:1035B000204600F033F800BF00000000F436000899
:1035C00070B50E4B0E4D0024ED1AAD101E46AC42E8
:1035D00004D056F8242090470134F8E700F020F892
:1035E000084D094B0024ED1AAD101E46AC4204D024
:1035F00056F8242090470134F8E770BD54010020AC
:1036000054010020580100205401002002440346C8
:10361000934202D003F8011BFAE77047FEE700006F
:10362000F8B500BFF8BC08BC9E467047F8B500BFAF
:10363000F8BC08BC9E467047120100020000004022
:10364000830411570001010203010000090229004F
:10365000010100E03209040000020300000009211A
:1036600001010001224F00070581034000200705EA
:1036700001034000200000000600FF0901A10185B0
:103680000109011500250175089502B1828501091E
:10369000019182850209021500250175089501B185
:1036A0008285020902918285030903150026FF0025
:1036B00075089501B1828503090391828504090487
:1036C000750895048182C000040309040A035200AE
:1036D00061004A00610000001603520048004900E2
:1036E00044002000530054004D003300320000001D
:0C36F00043000000F40000200000000077
:0836FC0044CAFF7F0100000039
:10370400010000001A03520048002D003000300070
:103714003000310000000000000000000000000044
:1037240011130008A52B0008A52B0008A52B0008E1
:10373400A52B0008A52B0008A52B0008AD12000836
:10374400A52B0008A52B0008A52B0008A52B000815
:10375400A52B0008A52B000802010000691500082C
:103764009115000895160008A1160008AD1600086A
:103774009D170008A1180008D1170008F5170008C4
:10378400191800080000000040000000A52B0008E4
:1037940051160008A52B0008A52B0008A52B00082E
:1037A400A52B0008A52B0008A52B00087D160008F2
:1037B40038360008120000004C36000829000000CA
:1037C400783600084F0000005E360008090000004B
:1037D400C836000804000000CC3600080A000000C7
:1037E400D836000816000000040000201A0000006B
:1037F40001000000000000000000000000000000C4
:1038040000000000000000000000000000000000B4
:1038140000000000F0360008000000000000000076
:103824000000000000000000000000000000000094
:103834000000000000000000000000000000000084
:103844000000000000000000000000000000000074
:0C3854000000000011010008ED00000859
:0400000508000000EF
:00000001FF
